:020000040800F2
:100000001814002001010008090100080B01000874
:100010000D0100080F010008110100080000000098
:1000200000000000000000000000000013010008B4
:100030001501000800000000170100081901000860
:100040001B0100081B0100081B0100081B01000820
:100050001B0100081B0100081B0100081B01000810
:100060001B0100081B0100081B0100081B01000800
:100070001B0100081B0100081B0100081B010008F0
:100080001B0100081B0100081B0100081B010008E0
:100090001B0100081B0100081B0100081B010008D0
:1000A0001B0100081B0100081B0100081B010008C0
:1000B0001B0100081B0100081B0100081B010008B0
:1000C0001B0100081B0100081B0100081B010008A0
:1000D0001B0100087D0B00081B0100081B01000824
:1000E0001B0100081B0100081B010008DFF80CD0F1
:1000F00000F018F800480047590F000818140020B5
:100100000648804706480047FEE7FEE7FEE7FEE7B1
:10011000FEE7FEE7FEE7FEE7FEE7FEE71D0B000851
:10012000ED000008064C074D06E0E06840F00103D2
:1001300094E8070098471034AC42F6D3FFF7DAFF93
:10014000A4190008C419000870B58D1810F8014BE7
:1001500014F0030201D110F8012B231106D110F87D
:10016000013B03E010F8016B01F8016B521EF9D15D
:10017000ABB110F8012B04F00C048A1A0C2C03D03C
:10018000A2EB84129B1C08E010F8014BA2EB0422A6
:10019000F8E712F8014B01F8014B5B1EF9D5A942B3
:1001A000D4D3002070BD014605E0002001E0421CD0
:1001B000D0B27B28FBDB0A1EA1F10101F5D170470B
:1001C0002DE9F041024600250026002000230024EE
:1001D000002791F803C00CF00F0591F803C00CF054
:1001E000100CBCF1000F03D091F802C04CEA0505D9
:1001F00091F800C0BCF1000F31D0146800202BE052
:100200004FF0010C0CFA00F3B1F800C00CEA030641
:100210009E4220D183004FF00F0C0CFA03F7BC4331
:1002200005FA03FC4CEA040491F803C0BCF1280F62
:1002300006D14FF0010C0CFA00FCC2F814C00AE021
:1002400091F803C0BCF1480F05D14FF0010C0CFA36
:1002500000FCC2F810C0401C0828D1D31460B1F8CB
:1002600000C0BCF1FF0F34DD546800202EE000F127
:10027000080C4FF0010808FA0CF3B1F800C00CEAC2
:1002800003069E4221D183004FF00F0C0CFA03F7B6
:10029000BC4305FA03FC4CEA040491F803C0BCF12A
:1002A000280F05D100F1080C08FA0CF8C2F81480E8
:1002B00091F803C0BCF1480F07D100F1080C4FF0D2
:1002C000010808FA0CF8C2F81080401C0828CED3A8
:1002D0005460BDE8F0810AB1016100E041617047FE
:1002E00070B502460024002500230020958A138B58
:1002F0001B0445EA030626F07F4404EA01068E4209
:1003000001D1012000E0002070BD21B1028842F03F
:100310000102028004E002884FF6FE731A40028058
:10032000704721B1028842F48072028004E00288A2
:100330004FF6FF631A400280704721B1028842F4F1
:100340000072028004E002884FF6FF531A400280D8
:1003500070470CB5024600200023019300930092E1
:100360000B0F019321F07F41019B1BB1009B1433C4
:10037000009303E0090C009B18330093009B1B685B
:100380000B400BB1012000E000200CBD2DE9F04333
:1003900085B004460D460026B1460427DFF8CC8020
:1003A000A6884FF6C0700640684600F0D9FADDF81E
:1003B00008802F48B8FBF0F01FFA80F946EA0906DA
:1003C000A68020884FF6FE7108402080002629492B
:1003D000286888420CD828684000B8FBF0F087B243
:1003E000042F00DA04273E4309F10100208427E0AE
:1003F000E8884BF6FF71884206D1286800EB400080
:10040000B8FBF0F087B209E0286800EBC00101EB0F
:100410000010B8FBF0F087B247F48047C7F30B0039
:1004200008B947F0010747F4004006434FF49670BF
:1004300009FB00F04FF47A7190FBF1F0401C20842E
:10044000A683208840F00100208026884FF6F530F2
:100450000640A8886989084306432680A889298917
:100460000843208105B0BDE8F083000000127A0047
:1004700040420F00A086010012B141F0010102E0EC
:100480004FF6FE73194001827047018270470000E9
:1004900070B5002100230F22C47804B3154C2468E2
:1004A00004F4E064C4F5E064210AC1F10403CA4025
:1004B000447804FA03F184781440214309010E4C76
:1004C0000678A155047804F01F050124AC40057896
:1004D0006D11AD0005F1E025C5F8004109E0047893
:1004E00004F01F050124AC40044D0678761145F850
:1004F000264070BD0CED00E000E400E080E100E08B
:1005000070B5002418E004F1B000002100F0FBF900
:100510000021084600F0F7F90021102000F0F3F95F
:10052000002505E00121002000F0EDF9681CC5B2AE
:10053000802DF7DB601CC4B2082CE4DB70BD2DE914
:10054000F05F06460F4690461C46DDF828A04FF0A7
:10055000000BE11704EB5171C910A4EBC10131B9D3
:100560002046E11704EB5171C1F3C70506E02046B0
:10057000E11704EB5171C910491CCDB23D4615E09D
:100580002946304600F0C4F8B1460BE059460BF15D
:10059000010B1AF80100012100F0B5F909F1010081
:1005A00000F0FF09C145F1DB681CC5B2A542E7DBDD
:1005B000BDE8F09F10B500F071F84FF44870FFF7F8
:1005C000F2FD0021AE2000F09EF90021084600F067
:1005D0009AF90021102000F096F90021402000F047
:1005E00092F90021B02000F08EF90021812000F066
:1005F0008AF90021FF2000F086F90021A12000F0F7
:1006000082F90021A62000F07EF90021A82000F048
:100610007AF900213F2000F076F90021C82000F08F
:1006200072F90021D32000F06EF90021084600F095
:100630006AF90021D52000F066F90021802000F041
:1006400062F90021D82000F05EF90021052000F0B9
:100650005AF90021D92000F056F90021F12000F0CC
:1006600052F90021DA2000F04EF90021122000F0AA
:100670004AF90021DB2000F046F90021302000F08B
:1006800042F900218D2000F03EF90021142000F0F5
:100690003AF90021AF2000F036F910BD00B585B061
:1006A0000121092000F04CF90121480500F038F93A
:1006B000C020ADF8100018208DF8130003208DF82D
:1006C000120004A90F48FFF77BFD0020ADF80400DD
:1006D0004FF48040ADF806007820ADF808004FF4E4
:1006E0008060ADF80A000001ADF80C0006480090EB
:1006F00069460648FFF74AFE01210448FFF705FE58
:1007000005B000BD000C0140A0860100005400406F
:1007100070B504460D4605F1B000002100F0F3F875
:10072000102141EA1410002100F0EDF804F00F0050
:10073000002100F0E8F870BD2DE9F04180460E463A
:100740001546002731464046FFF7E2FF00240AE045
:10075000124A02EB8511085D012100F0D4F8781CE3
:10076000C7B2601CC4B2102CF2DB701CC1B2404690
:10077000FFF7CEFF00240CE06900491C074A02EB9A
:100780004111085D012100F0BEF8781CC7B2601C61
:10079000C4B2102CF0DBBDE8F0810000000C00209A
:1007A0002DE9F04707460E4690469946002500245D
:1007B000A8F12000C5B27F2F02DD0027B01CC6B211
:1007C000B9F1100F24D131463846FFF7A1FF0024BC
:1007D00008E004EB0511194A505C012100F093F880
:1007E000601CC4B2082CF4DB701CC1B23846FFF7A1
:1007F0008FFF002409E004EB051108310F4A505C1B
:10080000012100F080F8601CC4B2082CF3DB12E078
:1008100031463846FFF77CFF00240AE005EB45012E
:10082000074A02EB4101085D012100F06CF8601CF1
:10083000C4B2062CF2DBBDE8F0870000B413000858
:100840008C1100082DE9FF5F074691461E460E9D5C
:100850004FF0000A002435E0301B401EC1B20A20D0
:1008600000F01FFCB9FBF0F00A21B0FBF1F201FB34
:100870001208BAF1000F14D1701EA04211DDB8F1B8
:10088000000F0CD1AB4605EBDB71491001FB047185
:10089000C8B22B4620220199FFF782FF10E04FF0EB
:1008A000010AAB4605EBDB71491001FB0471C8B2CC
:1008B00008F13001CAB22B460199FFF771FF00BF62
:1008C000601CC4B2B442C7DBBDE8FF9F2DE9F04114
:1008D00004460F461546984600260FE0AA5D43469B
:1008E00039462046FFF75CFF04F10800C4B2782CBB
:1008F00002DD0024B81CC7B2701CC6B2A85D002877
:10090000ECD1BDE8F08170B504460D461DB1E0B2F2
:1009100000F07EFA02E0E0B200F036FA70BD0000AE
:1009200029B1064AD2690243044BDA6104E0034A62
:10093000D2698243014BDA61704700000010024027
:1009400029B1064A92690243044B9A6104E0034AC2
:1009500092698243014B9A61704700000010024087
:1009600030B500210022002400232D4D6D6805F0D4
:100970000C0121B1042905D0082923D105E0294D16
:10098000056022E0274D05601FE0254D6D6805F4E8
:100990007012234D6D6805F48034022505EB9242F8
:1009A0001CB9214D554305600BE01D4D6D6805F4E4
:1009B00000351DB11C4D5543056002E0194D5543EE
:1009C000056002E0174D056000BF00BF144D6D6863
:1009D00005F0F0010909154D6B5C0568DD404560C7
:1009E0000F4D6D6805F4E061090A104D6B5C4568B8
:1009F000DD4085600A4D6D6805F46051C90A0B4DF4
:100A00006B5C4568DD40C560054D6D6805F440418F
:100A1000890B074D6B5CC568B5FBF3F5056130BD0F
:100A20000010024000127A0000093D000010002072
:100A30001010002010B500F001F810BD0CB500201A
:100A4000019000903348006840F4803031490860DC
:100A500000BF3048006800F4003000900198401C4E
:100A60000190009818B90198B0F5A06FF1D129480C
:100A7000006800F4003010B10120009001E0002077
:100A800000900098012843D12348006840F01000EE
:100A9000214908600846006820F003000860084605
:100AA000006840F0020008601A4840681949486030
:100AB0000846406848600846406840F480604860E6
:100AC0000846406820F47C1048600846406840F4BE
:100AD000E81048600846006840F08070086000BF79
:100AE0000C48006800F000700028F9D00948406800
:100AF00020F00300074948600846406840F00200C3
:100B0000486000BF0348406800F00C000828F9D195
:100B10000CBD0000001002400020024010B5134838
:100B2000006840F00100114908600846406810491B
:100B300008400E494860084600680E4908400B49C5
:100B400008600846006820F4802008600846406875
:100B500020F4FE0048604FF41F008860FFF76AFF32
:100B60004FF000600449086010BD00000010024012
:100B70000000FFF8FFFFF6FE08ED00E010B50024CE
:100B800040F22551084800F039F801280AD100F058
:100B9000E5FA0446204600F0E9FA40F22551024801
:100BA00000F004F810BD00000038014010B500222C
:100BB000002340F66A14A14200D100BF0A120124AA
:100BC0009440A3B2DC43048010BD21B1828942F479
:100BD0000052828104E082894DF6FF731A408281BF
:100BE000704702460020B1F5007F00D100BF138896
:100BF0000B400BB1012000E00020704770B50246A9
:100C0000002400230025002040F66A16B14200D1DE
:100C100000BFC1F3421501F01F03012606FA03F3DA
:100C2000012D02D19689334006E0022D02D1168AA9
:100C3000334001E0968A33400C12012606FA04F490
:100C40001688344013B10CB1012000E0002070BDC3
:100C5000F0B50346002400260025002040F66A1760
:100C6000B94200D100BF1846C1F3421401F01F067B
:100C7000012707FA06F5012C01D10C3004E0022C03
:100C800001D1103000E014301AB107682F4307601B
:100C900002E00768AF430760F0BD00002DE9F047B0
:100CA00086B005460E460024A24600BFA146002796
:100CB000B08900B100BF2F462C8A4CF6FF7004406B
:100CC000F08804432C82AC894EF6F3100440B088BF
:100CD00031890843718908430443AC81AC8A4FF6DB
:100CE000FF400440B0890443AC8201A8FFF738FEFE
:100CF0001F48874202D1DDF810A001E0DDF80CA00A
:100D0000A88900F4004040B10AEBCA0000EB0A10C9
:100D100031684900B0FBF1F807E00AEBCA0000EBCC
:100D20000A1031688900B0FBF1F86420B8FBF0F0DC
:100D300004012009642101FB1089A88900F4004006
:100D400040B1322000EBC900B0FBF1F000F0070029
:100D5000044308E0322000EB09106421B0FBF1F0FD
:100D600000F00F0004432C8106B0BDE8F0870000BE
:100D70000038014001468888C0F308007047C1F37D
:100D8000080282807047000010B5044600BF4FF48F
:100D900000311C48FFF7DDFA0028F8D1012119487D
:100DA000FFF7BFFA00BF18491648FFF799FA002865
:100DB000F9D0002278211348FFF75EFB00BF1349EA
:100DC0001048FFF78DFA0028F9D000210D48FFF7F1
:100DD0005CFB00BF0D49891C0A48FFF781FA002817
:100DE000F8D021460748FFF750FB00BF0749891C90
:100DF0000448FFF775FA0028F8D001210148FFF7F1
:100E00009CFA10BD0054004001000300820007005E
:100E100010B5044600BF4FF400311C48FFF799FAA3
:100E20000028F8D101211948FFF77BFA00BF1849C3
:100E30001648FFF755FA0028F9D000227821134808
:100E4000FFF71AFB00BF13491048FFF749FA0028C3
:100E5000F9D040210D48FFF718FB00BF0D49891C50
:100E60000A48FFF73DFA0028F8D021460748FFF767
:100E70000CFB00BF0749891C0448FFF731FA002822
:100E8000F8D001210148FFF758FA10BD0054004086
:100E90000100030082000700014A024900F013B874
:100EA000E90E00081410002002E008C8121F08C153
:100EB000002AFAD170477047002001E001C1121FDB
:100EC000002AFBD170472DE9F04116460F46044633
:100ED000002503E03946B047641C6D1C20780028CB
:100EE000F8D12846BDE8F08170B504460D46E0B261
:100EF00000F03CF9204670BD08B501211020FFF735
:100F00001FFD4FF40050ADF8000001208DF80200E5
:100F100010208DF8030069460448FFF751F90122BB
:100F200051030248FFF7D7F908BD00000010014047
:100F300010B5012251030248FFF7CDF910BD0000A2
:100F40000010014010B500224FF400510148FFF796
:100F5000C2F910BD0010014008B5FFF7CDFF4FF4F6
:100F6000E13000F0A9F8FFF7EDFF4FF47A7000F0E0
:100F700089F8FFF7DDFFFFF71DFBFFF7E3FFFFF742
:100F8000BFFA4FF47A7000F07DF832A0FFF784FFCB
:100F90002024002211461E20FFF7CEFB0122002153
:100FA0003020FFF7C9FB022200214220FFF7C4FBDB
:100FB000032200215420FFF7BFFB4AE0FFF7A0FA0D
:100FC000002211461E20FFF7B7FB0122002130202E
:100FD000FFF7B2FB022200214220FFF7ADFB032204
:100FE00000215420FFF7A8FB10231DA20321062097
:100FF000FFF76CFC10231EA206210020FFF766FC01
:101000001023224606213020FFF7CAFB10231AA224
:1010100006213F20FFF75AFC102003232246062119
:1010200000906720FFF70EFC601CC4B27E2C00DD30
:1010300020244FF4FA6000F025F81148082380229C
:10104000002100900846FFF77AFA4FF4FA6000F0AA
:1010500019F8B3E7696E6974206F6B0D0A00000020
:10106000302E393627204F4C4544205445535400E8
:1010700041534349493A0000434F44453A00000078
:10108000000000200146002006E0002000E0401C97
:1010900041F672729042FADB0A1EA1F10101F4D10D
:1010A000704710B50246012000E050430B1EA1F12D
:1010B0000104E1B2F9D110BD10B586B0044601219A
:1010C00044F20400FFF73CFC4FF40070ADF814004C
:1010D00001208DF8160018208DF8170005A91D486D
:1010E000FFF76EF84FF48060ADF8140004208DF81F
:1010F000170005A91748FFF763F801940020ADF821
:1011000010000C20ADF80E000020ADF80C00ADF87A
:101110000A00ADF8080001A90F48FFF7BFFD012143
:101120000D48FFF752FD012240F225510A48FFF712
:101130008FFD25208DF8000000208DF801008DF82E
:10114000020001208DF803006846FFF7A1F906B000
:1011500010BD0000000801400038014010B50248F1
:10116000FFF708FEC0B210BD0038014010B50446BC
:1011700021460548FFF703FE00BF80210248FFF724
:1011800030FD0028F9D010BD0038014000000000FB
:1011900000000000002F00000000070007000014FE
:1011A0007F147F1400242A7F2A120062640813230C
:1011B00000364955225000000503000000001C22A3
:1011C0004100000041221C000014083E08140008E1
:1011D000083E0808000000A0600000080808080891
:1011E000000060600000002010080402003E514929
:1011F000453E0000427F40000042615149460021C7
:1012000041454B31001814127F10002745454539E0
:10121000003C4A494930000171090503003649493B
:10122000493600064949291E0000363600000000F4
:10123000563600000008142241000014141414143F
:1012400000004122140800020151090600324959E8
:10125000513E007C1211127C007F49494936003E04
:1012600041414122007F4141221C007F49494941BF
:10127000007F09090901003E4149497A007F0808B9
:10128000087F0000417F4100002040413F01007F76
:1012900008142241007F40404040007F020C027F42
:1012A000007F0408107F003E4141413E007F090954
:1012B0000906003E4151215E007F0919294600467A
:1012C000494949310001017F0101003F4040403F51
:1012D000001F2040201F003F4038403F006314089B
:1012E0001463000708700807006151494543000076
:1012F0007F41410000552A552A55000041417F0099
:10130000000402010204004040404040000001028D
:101310000400002054545478007F48444438003876
:101320004444442000384444487F003854545418FE
:1013300000087E0901020018A4A4A47C007F080410
:1013400004780000447D4000004080847D00007FE0
:10135000102844000000417F4000007C04180478FD
:10136000007C0804047800384444443800FC2424F9
:1013700024180018242418FC007C080404080048E1
:101380005454542000043F444020003C4040207C02
:10139000001C2040201C003C4030403C00442810F1
:1013A0002844001CA0A0A07C004464544C441414A5
:1013B00014141414000000000000000000000000DD
:1013C00000000000000000F80000000000000033F2
:1013D0003000000000100C06100C06000000000099
:1013E0000000000040C07840C0784000043F040482
:1013F0003F040400007088FC08300000001820FF43
:10140000211E0000F008F000E018000000211C037D
:101410001E211E0000F00888700000001E212324F9
:101420001927211010160E00000000000000000017
:1014300000000000000000E01804020000000007A7
:101440001820400000020418E000000000402018AE
:1014500007000000404080F0804040000202010F81
:1014600001020200000000F0000000000101011F65
:1014700001010100000000000000000080B07000C9
:101480000000000000000000000000000001010159
:1014900001010101000000000000000000303000E8
:1014A00000000000000000008060180400601806C2
:1014B0000100000000E010080810E000000F1020FC
:1014C00020100F00001010F8000000000020203F46
:1014D00020200000007008080888700000302824D0
:1014E0002221300000300888884830000018202071
:1014F00020110E000000C02010F800000007042496
:10150000243F240000F808888808080000192120DA
:1015100020110E0000E0108888180000000F112034
:1015200020110E0000380808C83808000000003FED
:10153000000000000070880808887000001C22214C
:1015400021221C0000E010080810E00000003122F9
:1015500022110F00000000C0C00000000000003099
:1015600030000000000000800000000000008060EB
:10157000000000000000804020100800000102046C
:101580000810200040404040404040000404040453
:10159000040404000008102040800000002010080F
:1015A00004020100007048080808F0000000003044
:1015B00036010000C030C828E810E00007182724D2
:1015C00023140B000000C038E0000000203C230280
:1015D0000227382008F8888888700000203F2020E3
:1015E00020110E00C0300808080838000718202015
:1015F0002010080008F808080810E000203F20200C
:1016000020100F0008F88888E8081000203F2020EC
:101610002320180008F88888E8081000203F2000E0
:1016200003000000C0300808083800000718202018
:10163000221E020008F808000008F808203F2101D7
:1016400001213F20000808F8080800000020203F82
:101650002020000000000808F8080800C0808080F2
:101660007F00000008F888C028180800203F2001EB
:101670002638200008F8080000000000203F202045
:101680002020300008F8F800F8F80800203F003F5C
:10169000003F200008F830C00008F808203F200074
:1016A00007183F00E01008080810E0000F10202085
:1016B00020100F0008F808080808F000203F21015A
:1016C00001010000E01008080810E0000F182424B1
:1016D00038504F0008F8888888887000203F200024
:1016E000030C3020007088080808380000382021DA
:1016F00021221C00180808F8080818000000203FE4
:101700002000000008F808000008F808001F20204A
:1017100020201F000878880000C83808000007381B
:101720000E010000F80800F80008F800033C07006C
:10173000073C0300081868808068180820302C03D4
:10174000032C30200838C800C83808000000203FAB
:101750002000000010080808C8380800203826219A
:1017600020201800000000FE020202000000007F9E
:1017700040404000000C30C00000000000000001AC
:101780000638C00000020202FE0000000040404097
:101790007F000000000004020202040000000000BC
:1017A0000000000000000000000000008080808039
:1017B0008080808000020204000000000000000021
:1017C00000000000000080808080000000192422BA
:1017D00022223F2008F8008080000000003F1120F6
:1017E00020110E000000008080800000000E1120FB
:1017F00020201100000000808088F800000E1120D9
:1018000020103F200000808080800000001F2222E6
:1018100022221300008080F0888888180020203F52
:10182000202000000000808080808000006B949465
:101830009493600008F8008080800000203F210021
:1018400000203F2000809898000000000020203FEA
:1018500020200000000000809898000000C08080D8
:10186000807F000008F8000080808000203F240274
:101870002D302000000808F8000000000020203F64
:10188000202000008080808080808000203F200019
:101890003F20003F8080008080800000203F2100AA
:1018A00000203F200000808080800000001F20205A
:1018B00020201F00808000808000000080FFA12089
:1018C00020110E000000008080808000000E11209A
:1018D00020A0FF80808080008080800020203F2129
:1018E00020000100000080808080800000332424DC
:1018F00024241900008080E0808000000000001F88
:10190000202000008080000000808000001F202038
:1019100020103F20808080000080808000010E30F9
:101920000806010080800080008080800F300C035A
:101930000C300F0000808000808080000020312E5D
:101940000E312000808080000080808080818E7039
:101950001806010000808080808080000021302CEB
:101960002221300000000000807C02020000000004
:10197000003F404000000000FF00000000000000A9
:10198000FF0000000002027C800000000040403F99
:101990000000000000060101020204040000000033
:1019A00000000000C419000800000020181000000A
:1019B00048010008101E0008181000200004000054
:1019C000B80E0008300E00060AFE0AC600E000F05D
:1019D00000F800014006FE7DBBC7EF0100063BC7D3
:1019E000BB7DFE0001100D080CFEFE0C082060FE01
:1019F000FE60205C80077848FE82BABA0301135E5D
:101A0000A20101027B00016004FEFF0301C3FFFF8E
:101A10000F31BBE004C0C0C0270211FE2701378090
:101A20002175910B6004FFFF0C01411A000422E1B3
:101A3000E1E12705370060040F1F1801F31F0F0FA6
:101A4000012E27053484240F8C4222120C00FC0244
:101A50000202FC000004772008205844FE400010D9
:101A6000015112411E4112A12A01215F100A24A432
:101A70002E24E4242EA42447F80AF84A4C48F848B7
:101A80004C4AF88F31076200062108911F91180116
:101A90001412594E23C020A2A320C00A140B001216
:101AA0000A07027F02070A124810060B0A0A0A7F79
:101AB000040A540BCE900A1F2040404050205F8003
:101AC0000A017F01F280841407203010080C04C63C
:101AD0002F00020B048006E131190B042E2101EDC9
:101AE000A703F006F0081890E05801112905111419
:101AF000500D316143C68C88B0A0C0F0180801BEFB
:101B000018C3048004073C6071300A078C90502091
:101B1000314F40408915451620CA14060809060EA3
:101B20000BCF600420604001D008202F393050CC0A
:101B3000878F011C91C00A03020408183060C0801E
:101B4000C65D130519D60E2F0210051136130604B3
:101B50000114040E77C4510222033E780BE01809E9
:101B60000B040C12224282F812019AE4048CB0E0B9
:101B70007854058080C040097573300E4040602065
:101B8000202000204000408000BB0C131C8040201F
:101B900010080404070E08382048505050302032F6
:101BA000063405031C30C05C8F211F61043C070E06
:101BB00013111008071906250811D29C04FC1EE316
:101BC0007203040711794F868E99E1000C08503D8D
:101BD0006643464478304C030005D90103030001F5
:101BE0000D2A19043905054E5F9E7F060315F1087D
:101BF000061D08081030E0EA00051404081010243F
:101C0000CFC03E2F040D232D05C10F2C051818142D
:101C10001373066D77060D10EB08040713040C0E02
:101C20001211200B330F083A1E0019031DDF043375
:101C300000DD0621020A43309A2DE2031200022140
:101C4000051D2504011EDA0F561C17CA051C046069
:101C5000603006053E20D8060936501C05440C08A5
:101C6000303C041D3D041D39041C050008040C0F04
:101C7000044D46041C0600080004020B054C050632
:101C80000810405B041E806E041D7F05120CF7BE19
:101C9000036F072005030418701C5208331C06014B
:101CA0000003060C55060F2504043805C14E0D111E
:101CB00039051D90050D7E9D0A0D43E90315241F6E
:101CC000FC03C5060807137F88888482E05C1E0534
:101CD0006F0543FF0401F94D100B1060028C0044A6
:101CE0005454547F0403114440401E7E45060C08A2
:101CF00013FF15151555957F3D04200842CC002093
:101D000022E222030D121B060C0E1380403F40A05E
:101D1000988780809FA0A0BC40071EFEF1091EF29C
:101D2000010A0D134D0C1924100947201806017ED5
:101D300080804406FFE000ED75081702027B33FE49
:101D400022041EE273090D11840C1C044844432E26
:101D50000A080551434444FF4042200152FF080154
:101D600012C00C091320100C0300030C105C0510AA
:101D70000840301196909091040C0613981413505B
:101D8000301C050407150444847E0605C00C0F10A2
:101D900010D0FF9010804828090E082848885C055C
:101DA000000D120300FF00018080432C102C4380A3
:101DB0002D020A1C040804E37D061E20550B0D129B
:101DC0001D07227F04224201011320140420205009
:101DD00062000413444850402D910F313C0F1442CF
:101DE00042D10C100A8060F80740300FF888011DBE
:101DF000EF04FDCA04197D35C63DDD0A0D16260A1D
:101E0000230304043008060708090204062600001C
:04000005080000ED02
:00000001FF
