:020000040800F2
:10000000A006002089010008910100089301000862
:100010009501000897010008990100080000000000
:100020000000000000000000000000009B0100082C
:100030009D010008000000009F010008A1010008C8
:10004000A3010008A3010008A3010008A301000800
:10005000A3010008A3010008A3010008A3010008F0
:10006000A3010008A3010008A3010008A3010008E0
:10007000A3010008A3010008A3010008A3010008D0
:10008000A3010008A3010008A3010008A3010008C0
:10009000A3010008A3010008A3010008A3010008B0
:1000A000A3010008A3010008A3010008A3010008A0
:1000B000A3010008A3010008A3010008A301000890
:1000C000A3010008A3010008A3010008A301000880
:1000D000A3010008F1080008A3010008A30100081B
:1000E000A3010008A3010008A301000800F002F822
:1000F00000F03AF80AA090E8000C82448344AAF188
:100100000107DA4501D100F02FF8AFF2090EBAE885
:100110000F0013F0010F18BFFB1A43F0010318473B
:100120009C0D0000BC0D0000103A24BF78C878C1B7
:10013000FAD8520724BF30C830C144BF04680C60ED
:10014000704700000023002400250026103A28BF35
:1001500078C1FBD8520728BF30C148BF0B60704739
:100160001FB51FBD10B510BD00F071F81146FFF7A7
:10017000F7FF00F0FBFC00F08FF803B4FFF7F2FF8D
:1001800003BC00F097F80000094880470948004781
:10019000FEE7FEE7FEE7FEE7FEE7FEE7FEE7FEE737
:1001A000FEE7FEE704480549054A064B7047000094
:1001B0004D060008ED000008A0000020A006002069
:1001C000A0020020A00200204FF0013C50F8042BB8
:1001D00051F8043B9A4221D1A2EB0C03934313EA5A
:1001E000CC1317D150F8042B51F8043B9A4215D187
:1001F000A2EB0C03934313EACC130BD150F8042B5E
:1002000051F8043B9A4209D1A2EB0C03934313EA41
:10021000CC13DBD04FF00000704700BFD01A01BAFA
:10022000B1FA81F101F0180122FA01F0CB40C1F1DD
:100230002001DBB2C0B2C01A2CFA01F3D11A9143EB
:1002400011EAC311E6D17047704770477047754691
:1002500000F02CF8AE4605006946534620F0070032
:10026000854618B020B5FFF79DFFBDE820404FF050
:1002700000064FF000074FF000084FF0000B21F090
:100280000701AC46ACE8C009ACE8C009ACE8C0095D
:10029000ACE8C0098D46704710B50446AFF3008046
:1002A0002046BDE81040FFF768BF000000487047D7
:1002B0003C00002001491820ABBEFEE726000200EA
:1002C00070472DE9F041024600250026002000235A
:1002D0000024002791F803C00CF00F0591F803C02B
:1002E0000CF0100CBCF1000F03D091F802C04CEAE6
:1002F000050591F800C0BCF1000F31D01468002052
:100300002BE04FF0010C0CFA00F3B1F800C00CEA3E
:1003100003069E4220D183004FF00F0C0CFA03F726
:10032000BC4305FA03FC4CEA040491F803C0BCF199
:10033000280F06D14FF0010C0CFA00FCC2F814C0D3
:100340000AE091F803C0BCF1480F05D14FF0010C51
:100350000CFA00FCC2F810C0401C0828D1D314606D
:10036000B1F800C0BCF1FF0F34DD546800202EE06E
:1003700000F1080C4FF0010808FA0CF3B1F800C0C6
:100380000CEA03069E4221D183004FF00F0C0CFAB9
:1003900003F7BC4305FA03FC4CEA040491F803C0DC
:1003A000BCF1280F05D100F1080C08FA0CF8C2F8CE
:1003B000148091F803C0BCF1480F07D100F1080C7C
:1003C0004FF0010808FA0CF8C2F81080401C082809
:1003D000CED35460BDE8F081416170470161704740
:1003E00070B5002100230F22C47804B3154C246893
:1003F00004F4E064C4F5E064210AC1F10403CA40D6
:10040000447804FA03F184781440214309010E4C26
:100410000678A155047804F01F050124AC40057846
:100420006D11AD0005F1E025C5F8004109E0047843
:1004300004F01F050124AC40044D0678761145F800
:10044000264070BD0CED00E000E400E080E100E03B
:1004500029B1064AD2690243044BDA6104E0034A37
:10046000D2698243014BDA617047000000100240FC
:1004700029B1064A92690243044B9A6104E0034A97
:1004800092698243014B9A6170470000001002405C
:1004900030B500210022002400232D4D6D6805F0A9
:1004A0000C0121B1042905D0082923D105E0294DEB
:1004B000056022E0274D05601FE0254D6D6805F4BD
:1004C0007012234D6D6805F48034022505EB9242CD
:1004D0001CB9214D554305600BE01D4D6D6805F4B9
:1004E00000351DB11C4D5543056002E0194D5543C3
:1004F000056002E0174D056000BF00BF144D6D6838
:1005000005F0F0010909154D6B5C0568DD4045609B
:100510000F4D6D6805F4E061090A104D6B5C45688C
:10052000DD4085600A4D6D6805F46051C90A0B4DC8
:100530006B5C4568DD40C560054D6D6805F4404164
:10054000890B074D6B5CC568B5FBF3F5056130BDE4
:100550000010024000127A0000093D00080000204F
:100560001800002010B500F001F810BD0CB50020F7
:10057000019000903348006840F4803031490860B1
:1005800000BF3048006800F4003000900198401C23
:100590000190009818B90198B0F5A06FF1D12948E1
:1005A000006800F4003010B10120009001E000204C
:1005B00000900098012843D12348006840F01000C3
:1005C000214908600846006820F0030008600846DA
:1005D000006840F0020008601A4840681949486005
:1005E0000846406848600846406840F480604860BB
:1005F0000846406820F47C1048600846406840F493
:10060000E81048600846006840F08070086000BF4D
:100610000C48006800F000700028F9D009484068D4
:1006200020F00300074948600846406840F0020097
:10063000486000BF0348406800F00C000828F9D16A
:100640000CBD0000001002400020024010B513480D
:10065000006840F0010011490860084640681049F0
:1006600008400E494860084600680E4908400B499A
:1006700008600846006820F480200860084640684A
:1006800020F4FE0048604FF41F008860FFF76AFF07
:100690004FF000600449086010BD000000100240E7
:1006A0000000FFF8FFFFF6FE08ED00E021B1028830
:1006B00042F08002028004E002884FF67F731A4005
:1006C0000280704730B5002301248C40A3B2048C13
:1006D0009C430484048C02FA01F5ADB22C430484DB
:1006E00030BD21B1028842F00102028004E002889C
:1006F0004FF6FE731A4002807047000070B5002468
:1007000000220023058C4FF6FE7635400584028CCE
:100710008388048B4FF68F752C40B51E2C400D88B6
:100720002C43751E2A400D892A434D882A43144DB7
:10073000A8420BD0134DA84208D0134DA84205D0B3
:10074000124DA84202D0124DA84213D14FF6F775B0
:100750002A404D892A434FF6FB752A408D882A434B
:100760004FF6FF652B404FF6FF552B408D892B43ED
:10077000CD892B4383800483CD888586028470BD18
:10078000002C014000340140004001400044014081
:10079000004801400A460021018B4FF6F7731940CB
:1007A000114301837047000070B50022002300242C
:1007B000058C4EF6FF7635400584038C8488828B49
:1007C00048F6FF752A404FF6FF452A400D884FF640
:1007D000FF7606EA05252A434DF6FF752B400D8965
:1007E00006EA05352B434D8806EA05352B430B4DAC
:1007F000A84202D00A4DA84208D14BF6FF752C4002
:100800008D894FF6FF7606EA85152C438480828316
:10081000CD88A0F84050038470BD0000002C01403A
:10082000003401400A460021818B4FF2FF731940CA
:100830004FF6FF7303EA02231943818370478185D2
:10084000704781867047A0F84010704700220288E8
:100850001D4B98420ED01D4B98420BD0B0F1804FEB
:1008600008D01B4B984205D01A4B984202D01A4B25
:10087000984204D14FF68F731A404B881A43174B96
:10088000984207D0164B984204D04FF6FF431A40C7
:10089000CB881A4302808B8883850B8803850A4B9B
:1008A00098420BD0094B984208D00E4B984205D085
:1008B0000D4B984202D00D4B984201D10B7A038622
:1008C0000123838270470000002C01400034014066
:1008D0000004004000080040000C004000100040F0
:1008E0000014004000400140004401400048014025
:1008F00010B540F22551184800F05EF801282AD1C1
:10090000154800F015F91549154A1268885408462B
:1009100013490968405C0A280BD10120114908607D
:1009200000210E480E4A1268815400200C490860CC
:100930000CE00B4800681F2805DA09480068401CD5
:100940000749086002E000200549086040F225518F
:10095000014800F009F810BD003801401C000020DB
:10096000040000200000002010B50022002340F603
:100970006A14A14200D100BF0A1201249440A3B21C
:10098000DC43048010BD21B1828942F4005282818F
:1009900004E082894DF6FF731A4082817047024657
:1009A0000020B1F5007F00D100BF13880B400BB1D0
:1009B000012000E00020704770B5024600240023AB
:1009C0000025002040F66A16B14200D100BFC1F3F5
:1009D000421501F01F03012606FA03F3012D02D18F
:1009E0009689334006E0022D02D1168A334001E099
:1009F000968A33400C12012606FA04F41688344015
:100A000013B10CB1012000E0002070BDF0B5034629
:100A1000002400260025002040F66A17B94200D1C4
:100A200000BF1846C1F3421401F01F06012707FA60
:100A300006F5012C01D10C3004E0022C01D110305C
:100A400000E014301AB107682F43076002E007681E
:100A5000AF430760F0BD00002DE9F04786B00546C2
:100A60000E460024A24600BFA1460027B08900B16F
:100A700000BF2F462C8A4CF6FF700440F0880443D8
:100A80002C82AC894EF6F3100440B08831890843BB
:100A9000718908430443AC81AC8A4FF6FF4004409F
:100AA000B0890443AC8201A8FFF7F2FC1F488742DB
:100AB00002D1DDF810A001E0DDF80CA0A88900F457
:100AC000004040B10AEBCA0000EB0A10316849004F
:100AD000B0FBF1F807E00AEBCA0000EB0A1031683E
:100AE0008900B0FBF1F86420B8FBF0F004012009A4
:100AF000642101FB1089A88900F4004040B1322034
:100B000000EBC900B0FBF1F000F00700044308E07F
:100B1000322000EB09106421B0FBF1F000F00F006F
:100B200004432C8106B0BDE8F08700000038014086
:100B300001468888C0F308007047C1F3080282802C
:100B4000704710B5044603E04FF47A7000F005F8E2
:100B5000201EA4F10104F7D110BD00EBC00100BFBD
:100B60000A1EA1F10101FBD17047000090B00121E4
:100B70000420FFF77DFC01210846FFF779FC0121E5
:100B80000220FFF765FC012144F20400FFF770FC2E
:100B90000121C802FFF76CFC01211020FFF768FC5F
:100BA0004FF40050ADF83C0003208DF83E001020BB
:100BB0008DF83F000FA99548FFF783FB0E20ADF895
:100BC000380003208DF83A0010208DF83B000EA964
:100BD0008F48FFF776FB4FF42460ADF83800032010
:100BE0008DF83A0018208DF83B000EA98848FFF7D1
:100BF00068FB4FF48060ADF8340003208DF83600B8
:100C000004208DF837000DA98148FFF75AFB4720D3
:100C1000ADF8280044F61F60ADF82C000020ADF8B8
:100C20002E00ADF82A000AA97A48FFF70FFE0AA99C
:100C30007948FFF70BFE43F69820ADF81E006020C0
:100C4000ADF818000020ADF820000120ADF81A0022
:100C500006A97048FFF752FD08216E48FFF79AFD7C
:100C600006A96D48FFF7A0FD08216B48FFF7DAFDE4
:100C700001216848FFF71AFD01216748FFF716FDBB
:100C800001216448FFF72DFD01216348FFF729FD8D
:100C900025208DF8040000208DF8050001208DF836
:100CA00006008DF8070001A8FFF79AFB4FF4E1302A
:100CB00002900020ADF80C00ADF80E00ADF8100069
:100CC000ADF814000C20ADF8120002A95348FFF74C
:100CD000C3FE012240F225515048FFF797FE012143
:100CE0004E48FFF750FE8FE04D4800680128FAD1CA
:100CF00000204B4908604BA000F0D4F84D4800F0AC
:100D0000D1F84DA000F0CEF84CA14A48FFF75CFAAC
:100D100038B902213E48FFF761FB4AA000F0C2F853
:100D200072E04BA14348FFF74FFA38B90221384827
:100D3000FFF752FB49A000F0B5F865E04AA13D4835
:100D4000FFF742FAB0BB4FF4FA713248FFF779FD72
:100D50004FF44870FFF7F5FE40F6C4112D48FFF739
:100D600070FD4FF44870FFF7ECFE4FF4FA7129481C
:100D7000FFF767FD4FF44870FFF7E3FE40F6C4113C
:100D80002448FFF75EFD4FF44870FFF7DAFE4FF49A
:100D9000FA712048FFF755FD4FF44870FFF7D1FE78
:100DA00040F6C4111B48FFF74CFD4FF44870FFF7A5
:100DB000C8FE29E0FFE72EA11E48FFF705FAD8B9C3
:100DC0002DA000F06FF84FF47A711348FFF737FD4C
:100DD0004FF4FA711048FFF736FD01220C210E483E
:100DE000FFF770FC40F6B830FFF7ABFE00220C2195
:100DF0000948FFF767FC07E04FF400510348FFF78D
:100E0000EBFA10A000F04EF86EE700000010014071
:100E10000008014000040040002C0140003801405F
:100E200000000020596F75207265636569766564FE
:100E30003A2000001C0000200D0A00004C45445FD1
:100E40004F4E0D004C454431204F4E0D0A0000001E
:100E50004C45445F4F46460D000000004C45443170
:100E6000204F46460D0A0000454E47494E0D0000F2
:100E70004245450D00000000424545204F46460DC5
:100E80000A00000010B5044600BF80210448FFF7A7
:100E900086FD0028F9D021460148FFF74EFE10BD1F
:100EA0000038014010B5044603E014F8010BFFF7C9
:100EB000E9FF20780028F8D110BD0000DC0E000802
:100EC000000000201C00000028010008F80E0008A7
:100ED0001C000020840600004401000800000000FF
:100EE00000000000000000000102030401020304EE
:080EF0000607080902040608C8
:04000005080000ED02
:00000001FF
