:020000040800F2
:100000004004002001010008090100080B0100085C
:100010000D0100080F010008110100080000000098
:1000200000000000000000000000000013010008B4
:100030001501000800000000170100081901000860
:100040001B0100081B0100081B0100081B01000820
:100050001B0100081B0100081B0100081B01000810
:100060001B0100081B0100081B0100081B01000800
:100070001B0100081B0100081B0100081B010008F0
:100080001B0100081B0100081B0100081B010008E0
:100090001B0100081B0100081B0100081B010008D0
:1000A0001B0100081B0100081B0100081B010008C0
:1000B0001B0100081B0100081B0100081B010008B0
:1000C0001B0100081B0100081B0100081B010008A0
:1000D0001B010008550C00081B0100081B0100084B
:1000E0001B0100081B0100081B010008DFF80CD0F1
:1000F00000F042F900480047A51100084004002024
:100100000648804706480047FEE7FEE7FEE7FEE7B1
:10011000FEE7FEE7FEE7FEE7FEE7FEE7890A0008E6
:10012000ED00000830B505460020034600E05B1CEA
:10013000934205D2EC5CC85C201A01D1002CF6D1A8
:1001400030BD00000FB400B58DB010A909900B9020
:1001500000914FF0FF300A9000200C900548069067
:10016000054807906A4609A80F9900F0D7F80DB026
:100170005DF814FB39030008570300082DE9FF5F01
:100180001D464FF0FF3BD5E9014691465F464FF0D3
:100190000008A9697F1C01988847296A8246884718
:1001A0000028F6D1BAF1FF3F0CD024F4C064002E31
:1001B00019DD600614D5BAF12B0F09D0BAF12D0F55
:1001C0000ED103E0584604B0BDE8F09F44F48064CB
:1001D000A9697F1C01988847761E8246002E02DDA1
:1001E000BAF1300F03D0B9F1000F26D032E0A9697F
:1001F000761E44F400747F1C019888478246002EC6
:1002000005DDBAF1780F06D0BAF1580F03D0B9F175
:10021000000F10D01EE0B9F1000F02D0B9F1100F9D
:1002200018D1A969761E24F400747F1C01988847B0
:100230008246102002E0082000E00A20814609E002
:1002400008FB0908A969761E44F400747F1C019814
:1002500088478246002E05DD4946504600F04AF8A0
:100260000028EDDAE96901988847A00502D46FF00B
:100270000100A8E7E00725D1600613D5600502D587
:10028000C8F1000000E0404629680A1D2A6009689C
:10029000220501D5087015E0220701D5088011E07C
:1002A00008600FE02868011D29600068210502D55B
:1002B00080F8008006E0210702D5A0F8008001E068
:1002C000C0F8008038467EE730B50B460146002076
:1002D0002022012409E021FA02F59D4205D303FA08
:1002E00002F5491B04FA02F52844151EA2F1010289
:1002F000F1DC30BD3A2800D2303820F02002412A0B
:1003000001D3A2F13700884201D34FF0FF3070478C
:10031000026811441378016018467047D16004499F
:1003200051610449116200211161114600F03CB88D
:10033000110300089D030008426842B1016811F8EA
:10034000013B23B1521EC0E900121846704701213B
:10035000C160881E704742685AB1C368016843B9DA
:1003600083688B4205D0491E521CC0E90012002050
:1003700070474FF0FF307047064C074D06E0E068CD
:1003800040F0010394E8070098471034AC42F6D3DC
:10039000FFF7B0FE84140008A4140008C0B24FF4A4
:1003A000F05100F097B900002DE9F34F8BB04FF0FA
:1003B000000801F10C000C464FF0010B46460DF110
:1003C000080A01906269012101989047051E2DD00D
:1003D000252D2CD0216A8847C0B16269012101987E
:1003E0009047216A88470028F7D1411E6269019829
:1003F000904700E0761CA1690B988847216A8847DE
:100400000028F7D1E1690B988847DBE7A1690B98D1
:1004100088470746A84201D1761CD3E7E1690B98CB
:1004200088477F1C02D1B8F1000F6FD046E100274A
:1004300062693D463946019890472A2804D162698D
:100440000121019890470125DFF88492626901211A
:1004500001989047A0F130010A290AD24F45E5DC06
:1004600007EB870100EB4107303FDFD445F0100573
:10047000ECE7E90601D46FF000476C280AD04C285D
:1004800014D0682815D06A280DD074281CD07A287A
:100490001AD01DE062690121019890476C2802D0B2
:1004A00045F0040514E045F002050DE045F0200597
:1004B0000AE06269012101989047682802D045F05E
:1004C000080505E045F4006562690121019890473F
:1004D000C4E9015765283DD019DC58287AD00CDCD6
:1004E000452837D004DC252826D0412831D131E0F9
:1004F00046282FD047282CD12CE05B2877D06128C4
:1005000028D063287CD0642823D15AE0D0E06F281B
:1005100048D008DC66281DD067281BD0692821D068
:100520006E2816D127E0702845D0732868D075282A
:1005300047D078280DD14DE0A1690B988847054632
:1005400025283FF469AFE1690B9888476D1C3FF49B
:100550006AAFB3E023466A466FF001000B99AFF330
:1005600000809EE045F040006060A80723464FF001
:10057000000236D43EE0E8077FF447AF2068011D53
:1005800021600068290501D506701BE7290701D500
:10059000068017E7A90703D5F117C0E9006111E745
:1005A00006600FE745F040006060A80723464FF063
:1005B000080216D41EE040F60E0125EA0100606034
:1005C00016E045F040006060A80723464FF00A029D
:1005D00007D40FE045F040006060A80708D5234627
:1005E00010226FF001000B99AFF3008059E007E093
:1005F000234610226FF001000B99FFF7BFFD50E07A
:100600004FF000094F464B46632802D05B2806D0C6
:1006100040E0E80601D40120A06001273AE06269C9
:100620000121019890475E2805D14FF001096269C8
:10063000494601989047216939B900210A46534635
:1006400043F82120491C0829FADBB0B3216969B9B4
:10065000C11700EBD16253110AEB830122F01F0294
:10066000821A01200B68904003430B6062690121EC
:10067000019890475D28E8D1B9F1000F09D000201A
:10068000514651F82020D24341F82020401C082830
:10069000F7DB02AB224600976FF001000B99AFF336
:1006A000008000280CDA401C08D1BBF1000F05D0F7
:1006B0004FF0FF300DB0BDE8F08FFFE74046F9E79F
:1006C000E90701D108F1010806444FF0000B79E673
:1006D000CCCCCC0C7F2801D9002208E0064A02EBE2
:1006E0005002C007127800D1120902F00F02012057
:1006F0009040084070470000441400082DE9F04184
:10070000024600250026002000230024002791F83F
:1007100003C00CF00F0591F803C00CF0100CBCF1F5
:10072000000F03D091F802C04CEA050591F800C013
:10073000BCF1000F31D0146800202BE04FF0010C09
:100740000CFA00F3B1F800C00CEA03069E4220D177
:1007500083004FF00F0C0CFA03F7BC4305FA03FCBF
:100760004CEA040491F803C0BCF1280F06D14FF005
:10077000010C0CFA00FCC2F814C00AE091F803C0A6
:10078000BCF1480F05D14FF0010C0CFA00FCC2F887
:1007900010C0401C0828D1D31460B1F800C0BCF1CF
:1007A000FF0F34DD546800202EE000F1080C4FF0FC
:1007B000010808FA0CF3B1F800C00CEA03069E42E7
:1007C00021D183004FF00F0C0CFA03F7BC4305FA5C
:1007D00003FC4CEA040491F803C0BCF1280F05D1D6
:1007E00000F1080C08FA0CF8C2F8148091F803C064
:1007F000BCF1480F07D100F1080C4FF0010808FACE
:100800000CF8C2F81080401C0828CED35460BDE814
:10081000F0814161704701617047000070B50021AF
:1008200000230F22C47804B3154C246804F4E06458
:10083000C4F5E064210AC1F10403CA40447804FA13
:1008400003F184781440214309010E4C0678A15528
:10085000047804F01F050124AC4005786D11AD004B
:1008600005F1E025C5F8004109E0047804F01F0512
:100870000124AC40044D0678761145F8264070BD41
:100880000CED00E000E400E080E100E029B1064A60
:10089000D2690243044BDA6104E0034AD26982431D
:1008A000014BDA61704700000010024029B1064A8E
:1008B00092690243044B9A6104E0034A92698243BD
:1008C000014B9A61704700000010024030B50021D2
:1008D0000022002400232D4D6D6805F00C0121B18C
:1008E000042905D0082923D105E0294D056022E01F
:1008F000274D05601FE0254D6D6805F47012234DEE
:100900006D6805F48034022505EB92421CB9214D37
:10091000554305600BE01D4D6D6805F400351DB1B4
:100920001C4D5543056002E0194D5543056002E03A
:10093000174D056000BF00BF144D6D6805F0F00154
:100940000909154D6B5C0568DD4045600F4D6D680C
:1009500005F4E061090A104D6B5C4568DD40856077
:100960000A4D6D6805F46051C90A0B4D6B5C456812
:10097000DD40C560054D6D6805F44041890B074DAC
:100980006B5CC568B5FBF3F5056130BD0010024036
:1009900000127A0000093D00080000201800002025
:1009A00010B500F001F810BD0CB5002001900090CA
:1009B0003348006840F480303149086000BF304857
:1009C000006800F4003000900198401C01900098ED
:1009D00018B90198B0F5A06FF1D12948006800F46A
:1009E000003010B10120009001E00020009000983C
:1009F000012843D12348006840F0100021490860D5
:100A00000846006820F0030008600846006840F0CF
:100A1000020008601A484068194948600846406862
:100A200048600846406840F4806048600846406876
:100A300020F47C1048600846406840F4E8104860A4
:100A40000846006840F08070086000BF0C480068ED
:100A500000F000700028F9D00948406820F0030039
:100A6000074948600846406840F00200486000BFFF
:100A70000348406800F00C000828F9D10CBD0000C4
:100A8000001002400020024010B51348006840F0FA
:100A900001001149086008464068104908400E49A5
:100AA0004860084600680E4908400B49086008463F
:100AB000006820F4802008600846406820F4FE00AA
:100AC00048604FF41F008860FFF76AFF4FF0006036
:100AD0000449086010BD0000001002400000FFF84B
:100AE000FFFFF6FE08ED00E021B1028842F00102AE
:100AF000028004E002884FF6FE731A4002807047BD
:100B000070B5002400220023058C4FF6FE76354098
:100B10000584028C8388048B4FF68F752C40B51E9C
:100B20002C400D882C43751E2A400D892A434D8880
:100B30002A43144DA8420BD0134DA84208D0134DA0
:100B4000A84205D0124DA84202D0124DA84213D19E
:100B50004FF6F7752A404D892A434FF6FB752A4018
:100B60008D882A434FF6FF652B404FF6FF552B40EB
:100B70008D892B43CD892B4383800483CD88858643
:100B8000028470BD002C014000340140004001404F
:100B900000440140004801400A460021018B4FF605
:100BA000F773194011430183704781867047000035
:100BB000002202881D4B98420ED01D4B98420BD04C
:100BC000B0F1804F08D01B4B984205D01A4B984289
:100BD00002D01A4B984204D14FF68F731A404B88BB
:100BE0001A43174B984207D0164B984204D04FF641
:100BF000FF431A40CB881A4302808B8883850B8879
:100C000003850A4B98420BD0094B984208D00E4BF3
:100C1000984205D00D4B984202D00D4B984201D11D
:100C20000B7A03860123838270470000002C014069
:100C3000003401400004004000080040000C004067
:100C400000100040001400400040014000440140FA
:100C50000048014010B540F22551144800F056F804
:100C6000012822D1114800F00DF91149114A1268EA
:100C7000885408460F490968405C0A280BD10020B7
:100C80000B490C4A1268885401200B490860002067
:100C90000849086004E007480068401C05490860EE
:100CA00040F22551014800F009F810BD003801401C
:100CB00020000020040000200000002010B50022C9
:100CC000002340F66A14A14200D100BF0A12012499
:100CD0009440A3B2DC43048010BD21B1828942F468
:100CE0000052828104E082894DF6FF731A408281AE
:100CF000704702460020B1F5007F00D100BF138885
:100D00000B400BB1012000E00020704770B5024697
:100D1000002400230025002040F66A16B14200D1CD
:100D200000BFC1F3421501F01F03012606FA03F3C9
:100D3000012D02D19689334006E0022D02D1168A98
:100D4000334001E0968A33400C12012606FA04F47F
:100D50001688344013B10CB1012000E0002070BDB2
:100D6000F0B50346002400260025002040F66A174F
:100D7000B94200D100BF1846C1F3421401F01F066A
:100D8000012707FA06F5012C01D10C3004E0022CF2
:100D900001D1103000E014301AB107682F4307600A
:100DA00002E00768AF430760F0BD00002DE9F0479F
:100DB00086B005460E460024A24600BFA146002785
:100DC000B08900B100BF2F462C8A4CF6FF7004405A
:100DD000F08804432C82AC894EF6F3100440B088AE
:100DE00031890843718908430443AC81AC8A4FF6CA
:100DF000FF400440B0890443AC8201A8FFF766FDC0
:100E00001F48874202D1DDF810A001E0DDF80CA0F8
:100E1000A88900F4004040B10AEBCA0000EB0A10B8
:100E200031684900B0FBF1F807E00AEBCA0000EBBB
:100E30000A1031688900B0FBF1F86420B8FBF0F0CB
:100E400004012009642101FB1089A88900F40040F5
:100E500040B1322000EBC900B0FBF1F000F0070018
:100E6000044308E0322000EB09106421B0FBF1F0EC
:100E700000F00F0004432C8106B0BDE8F0870000AD
:100E80000038014001468888C0F308007047C1F36C
:100E900008028280704700000FB4054B10B503A90B
:100EA000044A029800F018F810BC5DF814FB00002A
:100EB000351100081C00002002E008C8121F08C1FC
:100EC000002AFAD170477047002001E001C1121FCB
:100ED000002AFBD1704700002DE9FF4F8BB09A46E6
:100EE0000F460546002606E025280BD052460D99F0
:100EF00090476D1C761C28780028F5D10FB030463D
:100F0000BDE8F08F0024A0460122604900E00443C0
:100F100015F8013F203B02FA03F00842F7D1287888
:100F20002E2817D115F8010F44F004042A280ED0FA
:100F30006FF02F022878A0F1300109290AD808EBB8
:100F4000880102EB410100EB01086D1CF2E757F844
:100F5000048B6D1C287869283ED006DC0028CDD093
:100F600063280BD0642804D136E0732810D075288C
:100F70004BD052460D999047761C85E017F8040B2C
:100F80008DF8000000208DF80100E946012003E003
:100F900057F8049B4FF0FF3061074FF0000401D475
:100FA0000AE0641C44450DDA8442FADB19F80410A7
:100FB0000029F6D106E0641C8442FCDB19F8041019
:100FC0000029F8D1264404E019F8010B52460D9986
:100FD0009047641EF8D257E001CF4FF00A0B00286B
:100FE00002DA40422D2102E0210504D52B218DF8A3
:100FF0002410012103E0E10705D02021F7E70DF1DE
:10100000200908910CE00021F9E701CF4FF00A0B0D
:10101000F9E75946FFF758F901F1300209F8012DB7
:101020000028F6D1ADEB090000F1200B600701D4D8
:101030004FF00108D84502DDA8EB0B0000E00020CE
:101040008046002406E009A85246005D0D999047AD
:10105000641C761C08988442F5DB04E0302052467C
:101060000D999047761CB8F10001A8F10108F5DC54
:1010700005E019F8010B52460D999047761CBBF11B
:101080000001ABF1010BF4DC6D1C34E70928010011
:1010900000B589B001210420FFF708FC4020ADF81D
:1010A000200003208DF8220018208DF8230008A9C5
:1010B0001648FFF723FB01210220FFF7E7FB47203B
:1010C000ADF814004FF47A70ADF818000020ADF8B8
:1010D0001A001020ADF8160005A90D48FFF768FDAD
:1010E000C820ADF80A006020ADF804000020ADF87B
:1010F0000C000120ADF8060001A90548FFF700FD2E
:1011000000210348FFF7F0FC09B000BD00080140D2
:101110000004004010B500210148FFF7E5FC10BDB8
:101120000004004010B501210148FFF7DDFC10BDAF
:101130000004004070B504460D46A0B200F072F9FC
:10114000002070BD08B501211020FFF7AFFB4FF460
:101150000050ADF8000003208DF8020010208DF83B
:10116000030069460448FFF7C9FA4FF400510248EA
:10117000FFF751FB08BD00000010014010B54FF40F
:1011800000510248FFF747FB10BD0000001001406E
:1011900010B54FF400510248FFF73BFB10BD0000B3
:1011A0000010014008B5FFF7CDFFFFF771FF00F019
:1011B00085F800F0D3F800F0EFF823A0FFF76CFEFD
:1011C00041E02848006800283DD0274927A0FFF7C4
:1011D00063FE062228A12448FEF7A4FF10B9FFF7FA
:1011E000D7FF2DE0072226A11F48FEF79BFF10B96D
:1011F000FFF7C4FF24E0072223A11B48FEF792FF5C
:1012000010B9FFF78FFF1BE0082221A11648FEF757
:1012100089FF10B9FFF77EFF12E005221FA11248D7
:10122000FEF780FF60B96A461EA10F48FEF78AFFED
:101230001FA00099FFF730FE009800F07DF800BF76
:10124000002008490860BCE7616C6C206465766921
:10125000636520696E697420737563636573730DCC
:101260000A00000000000020200000207265637664
:101270003A2025730D0A00006C6564206F6E000033
:101280006C6564206F66660062656570206F6E0035
:1012900062656570206F6666000000007365727697
:1012A0006E6F2000736572766E6F202564000000FB
:1012B000616E676C653A2025640D0A0000B589B03F
:1012C00001210820FFF7F2FA4020ADF820000320AA
:1012D0008DF8220018208DF8230008A91448FFF784
:1012E0000DFA01210420FFF7D1FA4720ADF81400D0
:1012F00044F62060ADF818000020ADF81A00ADF8F3
:10130000160005A90B48FFF753FC6020ADF8040058
:101310000020ADF80C000120ADF8060001A9054839
:10132000FFF7EEFB08210348FFF736FC09B000BDCC
:10133000000C01400008004070B504464FF4FA600C
:101340006043B42190FBF1F000F5FA75A9B20248B0
:10135000FFF72BFC70BD00000008004010B5012114
:101360000448FFF7C1FB4FF4FA710248FFF71DFC78
:1013700010BD00000008004008B525208DF80000D1
:1013800000208DF8010001208DF802008DF8030087
:101390006846FFF743FA08BD00B585B0FFF7ECFFDC
:1013A000012144F20400FFF781FA4FF40070ADF818
:1013B000100003208DF8120018208DF8130004A9E6
:1013C0001648FFF79BF94FF48060ADF81000042039
:1013D0008DF8130004A91148FFF790F94FF4E1309C
:1013E00000900020ADF80400ADF80600ADF808004C
:1013F000ADF80C000C20ADF80A0069460848FFF76C
:10140000D5FC012240F225510548FFF7A9FC012136
:101410000348FFF762FC05B000BD00000008014072
:101420000038014010B5044600BF80210448FFF792
:1014300060FC0028F9D021460148FFF728FD10BDC7
:1014400000380140DDDDDDDDDCBBBBDDDDDDDDDD0C
:10145000DDDDDDDD988888888888888877777777EC
:1014600077888888855555566666666666666666B8
:101470006668888883333332222222222222222263
:101480002228888DA41400080000002020000000FD
:10149000B80E0008C414000820000020200400003A
:1014A000C80E00080000000000000000000000005E
:1014B00001020304010203040607080902040608E6
:0414C0000000000028
:04000005080000ED02
:00000001FF
