:020000040800F2
:100000005807002091010008990100089B01000891
:100010009D0100089F010008A101000800000000E8
:10002000000000000000000000000000A301000824
:10003000A501000800000000A7010008A9010008B0
:10004000AB010008AB010008AB010008AB010008E0
:10005000AB010008AB010008AB010008AB010008D0
:10006000AB010008AB010008AB010008AB010008C0
:10007000AB010008AB010008AB010008AB010008B0
:10008000AB010008AB010008AB010008AB010008A0
:10009000AB010008AB010008AB010008AB01000890
:1000A000AB010008AB010008AB010008AB01000880
:1000B000AB010008AB010008AB010008AB01000870
:1000C000AB010008AB010008AB010008AB01000860
:1000D000AB010008750C0008AB010008AB0100087B
:1000E000AB010008AB010008AB01000800F002F80A
:1000F00000F03FF80AA090E8000C82448344AAF183
:100100000107DA4501D100F034F8AFF2090EBAE880
:100110000F0013F0010F18BFFB1A43F0010318473B
:100120000C1600002C160000103A24BF78C878C1C5
:10013000FAD8520724BF30C830C144BF04680C60ED
:10014000704700000023002400250026103A28BF35
:1001500078C1FBD8520728BF30C148BF0B60704739
:10016000642900F07D80002070471FB51FBD10B5C9
:1001700010BD00F02AF91146FFF7F7FF01F054F81F
:1001800000F048F903B4FFF7F2FF03BC00F050F9A8
:100190000948804709480047FEE7FEE7FEE7FEE71B
:1001A000FEE7FEE7FEE7FEE7FEE7FEE70448054957
:1001B000054A064B70470000910A0008ED00000850
:1001C0005801002058070020580300205803002041
:1001D0000FB41CB5074B06AA7B44694600900598EE
:1001E00000F0DBF80020694600F0EAF81CBC5DF87E
:1001F00014FB0000E50100002DE9F0410E46044625
:10020000002020622046E168884730B3252805D0C9
:10021000D4E901219047206A401CF2E7E1682046BA
:1002200000278847050018D0A5F14100192802D8F9
:1002300020354FF400673246294620462760FFF7F5
:100240008FFF40B1012804D0F61D26F007060836BE
:10025000D8E7361DD6E72846DAE7206ABDE8F08100
:100260002DE9F0410646002410687529314616A58F
:1002700010D0AFF30080002802DA404213A507E057
:1002800031688A0701D512A502E0490704D511A5F6
:10029000012401E0AFF3008000210A2206F12407C7
:1002A00009E0B0FBF2FCB0FBF2F302FB1C003030C3
:1002B00078541846491C0028F3D123462A46304674
:1002C000BDE8F04100F00BB8000000002D00000078
:1002D0002B000000200000007047704770472DE998
:1002E000F0470D4699469246044600F124080168FD
:1002F000880604D5E06921F01001216000E00120AA
:10030000A84201DD471B00E00027A1697A1902EB32
:100310000900081AA0612078C00602D42046AFF375
:100320000080002608E0D4E901211AF80600904771
:10033000206A401C761C20624E45F4DB2078C00603
:100340000AD52046AFF3008006E0D4E90121302031
:100350009047206A401C2062381EA7F10107F4DC98
:1003600007E0D4E9012118F805009047206A401CF5
:100370002062281EA5F10105F3DC2046AFF30080C2
:100380002078000602D50220BDE8F0870120FBE7B7
:1003900001694A1C02610878704700B58FB0CDE949
:1003A00001310021059105497944CDE90310114639
:1003B0006846FFF721FF0FB000BD0000E5FFFFFF1B
:1003C0000A6802F8010B0A607047754600F02CF8C5
:1003D000AE4605006946534620F00700854618B032
:1003E00020B5FFF7E3FEBDE820404FF000064FF0D8
:1003F00000074FF000084FF0000B21F00701AC465A
:10040000ACE8C009ACE8C009ACE8C009ACE8C00978
:100410008D46704710B50446AFF300802046BDE816
:100420001040FFF7AFBE000000487047F400002006
:1004300001491820ABBEFEE726000200704721B13B
:10044000826842F00102826003E0826822F00102C9
:1004500082607047014600208A6802F004020AB1F7
:10046000012000E0002070470146C86C80B2704750
:100470000246002013680B400BB1012000E0002071
:100480007047014600208A6802F008020AB1012084
:1004900000E0002070472DE9FE4F81468A4616464F
:1004A0000027002417E0072301225146484600F0A8
:1004B0006DF80121484600F0CAF800BF0221484605
:1004C000FFF7D6FF0028F9D04846FFF7CDFF2DF8FB
:1004D0001400601CC4B2B442E5DB00241AE000251D
:1004E00012E03DF81510681C3DF81000814209DD4E
:1004F0003DF81580681C3DF810002DF81500681CAB
:100500002DF81080681CC5B2701E001BA842E8DCE4
:10051000601CC4B2701EA042E1DC012405E03DF87D
:100520001400384487B2601CC4B2701EA042F6DCCE
:10053000B01E97FBF0F080B2BDE8FE8F30B50246EA
:100540000020002350680F4C20400D790C6844EACD
:1005500005242043506090680B4C2040D1E90254A0
:100560002C434D7944EA450420439060D06A20F43E
:1005700070000C7C641EE4B2234340EA0350D06256
:1005800030BD0000FFFEF0FFFDF7F1FFF0B50446BF
:100590000D4600200021092D11DDE068A5F10A06B5
:1005A00006EB4607072606FA07F18843A5F10A0677
:1005B00006EB460603FA06F10843E0600CE020690A
:1005C00005EB4507072606FA07F1884305EB4506C4
:1005D00003FA06F108432061072A0FDA606B561E02
:1005E00006EB86071F2606FA07F18843561E06EB20
:1005F000860605FA06F10843606322E00D2A0FDA49
:10060000206BD61F06EB86071F2606FA07F18843E4
:10061000D61F06EB860605FA06F10843206310E0B4
:10062000E06AA2F10D0606EB86071F2606FA07F11F
:100630008843A2F10D0606EB860605FA06F108438B
:10064000E062F0BD816841F008018160704721B12E
:10065000826842F4A002826003E0826822F4A00271
:1006600082607047816841F00401816070472DE924
:10067000F041024600250026002000230024002728
:1006800091F803C00CF00F0591F803C00CF0100CAA
:10069000BCF1000F03D091F802C04CEA050591F8B7
:1006A00000C0BCF1000F31D0146800202BE04FF0E7
:1006B000010C0CFA00F3B1F800C00CEA03069E42EC
:1006C00020D183004FF00F0C0CFA03F7BC4305FA5E
:1006D00003FC4CEA040491F803C0BCF1280F06D1D6
:1006E0004FF0010C0CFA00FCC2F814C00AE091F8BB
:1006F00003C0BCF1480F05D14FF0010C0CFA00FC0F
:10070000C2F810C0401C0828D1D31460B1F800C052
:10071000BCF1FF0F34DD546800202EE000F1080C1E
:100720004FF0010808FA0CF3B1F800C00CEA030618
:100730009E4221D183004FF00F0C0CFA03F7BC430B
:1007400005FA03FC4CEA040491F803C0BCF1280F3D
:1007500005D100F1080C08FA0CF8C2F8148091F8E1
:1007600003C0BCF1480F07D100F1080C4FF001089D
:1007700008FA0CF8C2F81080401C0828CED3546048
:10078000BDE8F0810246002093680B400BB10120C8
:1007900000E00020704741617047016170470AB175
:1007A000016100E04161704770B5052203210B48EB
:1007B000FFF771FE0546052207210948FFF76BFE8A
:1007C0000646741BB4F57A7F01DA002070BDB4F5DB
:1007D000966F01DD0220F9E70120F7E700240140D0
:1007E0000028014070B5002100230F22C47804B313
:1007F000154C246804F4E064C4F5E064210AC1F1F6
:100800000403CA40447804FA03F184781440214375
:1008100009010E4C0678A155047804F01F05012447
:10082000AC4005786D11AD0005F1E025C5F800413B
:1008300009E0047804F01F050124AC40044D06785B
:10084000761145F8264070BD0CED00E000E400E0B4
:1008500080E100E001460020034A506820F4404057
:1008600008435060704700000010024029B1064A5A
:10087000D2690243044BDA6104E0034AD26982433D
:10088000014BDA61704700000010024029B1064AAE
:1008900092690243044B9A6104E0034A92698243DD
:1008A000014B9A61704700000010024030B50021F2
:1008B0000022002400232D4D6D6805F00C0121B1AC
:1008C000042905D0082923D105E0294D056022E03F
:1008D000274D05601FE0254D6D6805F47012234D0E
:1008E0006D6805F48034022505EB92421CB9214D58
:1008F000554305600BE01D4D6D6805F400351DB1D5
:100900001C4D5543056002E0194D5543056002E05A
:10091000174D056000BF00BF144D6D6805F0F00174
:100920000909154D6B5C0568DD4045600F4D6D682C
:1009300005F4E061090A104D6B5C4568DD40856097
:100940000A4D6D6805F46051C90A0B4D6B5C456832
:10095000DD40C560054D6D6805F44041890B074DCC
:100960006B5CC568B5FBF3F5056130BD0010024056
:1009700000127A0000093D00200000203000002015
:1009800010B500F001F810BD0CB5002001900090EA
:100990003348006840F480303149086000BF304877
:1009A000006800F4003000900198401C019000980D
:1009B00018B90198B0F5A06FF1D12948006800F48A
:1009C000003010B10120009001E00020009000985C
:1009D000012843D12348006840F0100021490860F5
:1009E0000846006820F0030008600846006840F0F0
:1009F000020008601A484068194948600846406883
:100A000048600846406840F4806048600846406896
:100A100020F47C1048600846406840F4E8104860C4
:100A20000846006840F08070086000BF0C4800680D
:100A300000F000700028F9D00948406820F0030059
:100A4000074948600846406840F00200486000BF1F
:100A50000348406800F00C000828F9D10CBD0000E4
:100A60000010024000200240042808D14FF0E0218D
:100A7000096941F004014FF0E022116107E04FF0F5
:100A8000E021096921F004014FF0E0221161704773
:100A900010B51348006840F001001149086008468D
:100AA0004068104908400E494860084600680E49F1
:100AB00008400B4908600846006820F48020086060
:100AC0000846406820F4FE0048604FF41F0088602C
:100AD000FFF756FF4FF000600449086010BD0000AA
:100AE000001002400000FFF8FFFFF6FE08ED00E0F6
:100AF00021B1028842F08002028004E002884FF6B1
:100B00007F731A400280704721B1028842F00102CF
:100B1000028004E002884FF6FE731A40028070479C
:100B200070B5002400220023058C4FF6FE76354078
:100B30000584028C8388048B4FF68F752C40B51E7C
:100B40002C400D882C43751E2A400D892A434D8860
:100B50002A43144DA8420BD0134DA84208D0134D80
:100B6000A84205D0124DA84202D0124DA84213D17E
:100B70004FF6F7752A404D892A434FF6FB752A40F8
:100B80008D882A434FF6FF652B404FF6FF552B40CB
:100B90008D892B43CD892B4383800483CD88858623
:100BA000028470BD002C014000340140004001402F
:100BB00000440140004801400A460021018B4FF6E5
:100BC000F773194011430183704781867047000015
:100BD000002202881D4B98420ED01D4B98420BD02C
:100BE000B0F1804F08D01B4B984205D01A4B984269
:100BF00002D01A4B984204D14FF68F731A404B889B
:100C00001A43174B984207D0164B984204D04FF620
:100C1000FF431A40CB881A4302808B8883850B8858
:100C200003850A4B98420BD0094B984208D00E4BD3
:100C3000984205D00D4B984202D00D4B984201D1FD
:100C40000B7A03860123838270470000002C014049
:100C5000003401400004004000080040000C004047
:100C600000100040001400400040014000440140DA
:100C70000048014010B540F22551274800F088F89F
:100C8000012848D1244800F03FF904462146224873
:100C900000F03FF9A4F1310006281CD2DFE800F093
:100CA00003070B0F131701201C49086013E00120F4
:100CB0001B4908600FE001201A4908600BE0012081
:100CC0001949086007E001201849086003E0012085
:100CD0001749086000BF00BF0A2C08D015480268F9
:100CE0000068401C134B1860134884540EE0002128
:100CF000104802680068401C0E4B18600E48815472
:100D000000201946086001200C49086040F2255176
:100D1000014800F015F810BD003801400400002023
:100D2000080000200C00002010000020140000200B
:100D3000180000201C0000203400002000000020CB
:100D400010B50022002340F66A14A14200D100BF72
:100D50000A1201249440A3B2DC43048010BD21B1E7
:100D6000828942F40052828104E082894DF6FF7349
:100D70001A408281704702460020B1F5007F00D101
:100D800000BF13880B400BB1012000E0002070472A
:100D900070B50246002400230025002040F66A16A4
:100DA000B14200D100BFC1F3421501F01F0301267B
:100DB00006FA03F3012D02D19689334006E0022D95
:100DC00002D1168A334001E0968A33400C12012684
:100DD00006FA04F41688344013B10CB1012000E087
:100DE000002070BDF0B50346002400260025002039
:100DF00040F66A17B94200D100BF1846C1F3421449
:100E000001F01F06012707FA06F5012C01D10C306D
:100E100004E0022C01D1103000E014301AB1076850
:100E20002F43076002E00768AF430760F0BD000092
:100E30002DE9F04786B005460E460024A24600BFC5
:100E4000A1460027B08900B100BF2F462C8A4CF67E
:100E5000FF700440F08804432C82AC894EF6F310F6
:100E60000440B08831890843718908430443AC8148
:100E7000AC8A4FF6FF400440B0890443AC8201A81D
:100E8000FFF714FD1F48874202D1DDF810A001E0F2
:100E9000DDF80CA0A88900F4004040B10AEBCA00BC
:100EA00000EB0A1031684900B0FBF1F807E00AEBEB
:100EB000CA0000EB0A1031688900B0FBF1F8642029
:100EC000B8FBF0F004012009642101FB1089A88916
:100ED00000F4004040B1322000EBC900B0FBF1F05B
:100EE00000F00700044308E0322000EB0910642101
:100EF000B0FBF1F000F00F0004432C8106B0BDE818
:100F0000F08700000038014001468888C0F30800DF
:100F10007047C1F308028280704700002DE9FC4150
:100F200006460F4600200090019000F0A5F8002230
:100F30004FF480713748FFF732FC142000F005FBB6
:100F4000012211023348FFF72AFC1E2000F01BFB90
:100F500000F07CF84FF480712E48FFF713FC002856
:100F600054D100BF4FF480712A48FFF70BFC0028D2
:100F7000F8D000BF4FF480712648FFF703FC01282A
:100F8000F8D0002427E0072522E04FF0000800BF3A
:100F90004FF480711F48FFF7F5FB0028F8D004E0FC
:100FA00008F101080A2000F0EEFA4FF480711948A8
:100FB000FFF7E8FB0128F3D0B8F1050F07DD1DF8B6
:100FC00004000121A9400843C0B20DF804006D1EC1
:100FD000002DDADA641C052CD5DB9DF800009DF8A5
:100FE000011008449DF8021008449DF803100844BD
:100FF000C0B29DF80410884208D19DF8000030600E
:101000009DF8020038600020BDE8FC814FF0FF3001
:10101000FAE70000000C014008B501210420FFF7A9
:1010200035FC01210846FFF731FC4020ADF80000F7
:1010300003208DF8020018208DF80300694602484D
:10104000FFF715FB08BD00000008014008B50121AD
:101050000820FFF71BFC4FF48070ADF80000032060
:101060008DF8020048208DF8030069460148FFF71B
:10107000FEFA08BD000C014008B501210820FFF769
:1010800005FC4FF48070ADF8000003208DF80200DD
:1010900010208DF8030069460148FFF7E8FA08BD03
:1010A000000C014008B501211020FFF7EFFB0121E2
:1010B0000420FFF7EBFB4FF40050ADF800000320D5
:1010C0008DF8020010208DF8030069460848FFF7EC
:1010D000CEFA0720ADF8000003208DF802001020A2
:1010E0008DF8030069460348FFF7C1FA08BD000008
:1010F000001001400008014000B587B001214FF405
:101100000170FFF7C3FB4FF40040FFF7A3FB08207B
:10111000ADF8180000208DF81B0006A91B48FFF74A
:10112000A6FA002001908DF8080001208DF8090032
:101130004FF4602003900020049001208DF81400EB
:1011400001A91348FFF7FAF90723012203211048E8
:10115000FFF71CFA01210E48FFF771F90C48FFF761
:1011600071FA00BF0A48FFF78CF90128FAD0084845
:10117000FFF778FA00BF0648FFF76CF90128FAD0AC
:1011800001210348FFF763FA07B000BD00080140E2
:101190000024014000B587B0012140F20440FFF770
:1011A00075FB8020ADF8180000208DF81B0006A903
:1011B0001B48FFF75CFA002001908DF80800012021
:1011C0008DF809004FF46020039000200490012066
:1011D0008DF8140001A91348FFF7B0F90723012285
:1011E00019461048FFF7D2F901210E48FFF727F9F9
:1011F0000C48FFF727FA00BF0A48FFF742F9012819
:10120000FAD00848FFF72EFA00BF0648FFF722F988
:101210000128FAD001210348FFF719FA07B000BDF1
:101220000008014000280140A6B0FFF73BFFFFF790
:10123000F3FE00F0D3F900F0C3F9FFF75DFFFFF70D
:10124000A9FF4FF4E13000F001FAE3E072480068D2
:1012500072490968724A1268724B1B68CDE9003204
:10126000CDE90210704803687048026870A106A8B2
:10127000FEF7AEFF06A800F04DFA674800680028A8
:1012800031D073A106A8FEF7A3FF06A800F042FA2A
:101290006548006838B14FF47A717248FFF795FCE1
:1012A0000020614908605F48006838B140F2DC51B5
:1012B0006C48FFF78AFC00205A49086058480068CB
:1012C00038B14FF4FA616748FFF77FFC00205449BA
:1012D000086052480068002862D000204F4908602A
:1012E0004D4908605CE005A904A8FFF717FE052238
:1012F00003215D48FFF7CFF80446052207215B482C
:10130000FFF7C9F80546FFF74FFA0646AEB9281BA6
:10131000DDE904122B46CDE901210090224654A1BB
:1013200006A8FEF755FF4FF4FA614E48FFF74DFC53
:101330004FF4967000F0FCF82EE0012E15D1281B1A
:10134000DDE904122B46CDE901210090224658A187
:1013500006A8FEF73DFF40F2DC514248FFF735FC9E
:101360004FF4967000F0E4F816E0022E14D1281B1A
:10137000DDE904122B46CDE90121009022465CA153
:1013800006A8FEF725FF4FF47A713648FFF71DFCDB
:101390004FF4967000F0CCF806A800F0BBF900BF3F
:1013A0002248006890B302216048FFF7F6F94FF435
:1013B0007A7000F0BDF802215C48FFF7ECF94FF4B9
:1013C0007A7000F0B5F804215848FFF7E6F94FF4B9
:1013D0007A7000F0ADF804215448FFF7DCF94FF4BF
:1013E0007A7000F0A5F801215048FFF7D6F94FF4C4
:1013F0007A7000F09DF801214C48FFF7CCF94FF4CA
:101400007A7000F095F80020084908604FF47A706F
:1014100000F08EF81AE700001800002014000020E9
:10142000100000200C000020080000200400002014
:10143000C4A3CABDD4CBD0D0D6D02E2E2E256420A6
:1014400025642025642025642025642025640A0065
:10145000666C616737C4A3CABDD4CBD0D0D6D02EBA
:101460002E2E0A0000040040002401400028014004
:10147000D7F3D6B5A3BA25642C20D3D2D6B5A3BA58
:1014800025642C20B2EED6B5A3BA256420A1FA209B
:10149000B7BDCFF2A3BACFF2D7F32C2074656DA3FA
:1014A000BA25642C68756DA3BA25640A0000000093
:1014B000D7F3D6B5A3BA25642C20D3D2D6B5A3BA18
:1014C00025642C20B2EED6B5A3BA256420A1FA205B
:1014D000B7BDCFF2A3BAD5FDC7B0B7BD2C74656D4B
:1014E000A3BA25642C68756DA3BA25640A000000B0
:1014F000D7F3D6B5A3BA25642C20D3D2D6B5A3BAD8
:1015000025642C20B2EED6B5A3BA256420A1FA201A
:10151000B7BDCFF2A3BACFF2D3D22C74656DA3BA04
:1015200025642C68756DA3BA25640A000008014083
:10153000002107E0002200E0521C41F672739A423B
:10154000FADB491C8142F5DB704742F22831414306
:101550004FF0E0225161002191611146096941F08B
:101560000101116100BF4FF0E021096901F48031F0
:101570000029F8D04FF0E021096921F480314FF0C3
:10158000E0221161704700EBC0014FF0E022516191
:10159000002191611146096941F00101116100BF0B
:1015A0004FF0E021096901F480310029F8D04FF0B3
:1015B000E021096921F480314FF0E0221161704788
:1015C00010B56FF00400FFF74FFA4FF0E02000690C
:1015D00020F002004FF0E021086110BD00B587B097
:1015E00001210220FFF742F94720ADF8100044F630
:1015F0001F60ADF814000020ADF81600ADF8120021
:1016000004A91148FFF7E4FA40F2DC50ADF80600F7
:101610006020ADF800000020ADF808000120ADF812
:10162000020069460848FFF77BFA08210648FFF7E1
:10163000C3FA01210448FFF75BFA01210248FFF7D2
:1016400063FA07B000BD00000004004010B586B08A
:101650000446012144F20400FFF718F94FF400702A
:10166000ADF8140001208DF8160018208DF8170031
:1016700005A91E48FEF7FBFF4FF48060ADF814008B
:1016800001208DF8160004208DF8170005A91748D1
:10169000FEF7EDFF01940020ADF80800ADF80A0058
:1016A000ADF80C00ADF810000C20ADF80E0001A94B
:1016B0000F48FFF7BDFB012240F225510C48FFF710
:1016C00091FB25208DF8000001208DF803000020FB
:1016D0008DF801008DF802006846FFF783F80121BC
:1016E0000348FFF73CFB06B010BD000000080140B6
:1016F0000038014010B5044621460548FFF709FCB3
:1017000000BF80210248FFF736FB0028F9D010BD4A
:101710000038014010B5044603E02078FFF7EAFFE7
:10172000641C20780028F8D110BD00004C17000878
:101730000000002034000000280100088017000885
:1017400034000020240700004401000800000000CD
:101750000000000000000000000000000000000089
:101760000000000000000000000000000000000079
:101770000102030401020304060708090204060823
:04000005080000ED02
:00000001FF
