:020000040800F2
:1000000060090020D1010008D9010008DB010008C7
:10001000DD010008DF010008E10100080000000028
:10002000000000000000000000000000E3010008E4
:10003000E501000800000000E7010008E9010008F0
:10004000EB010008EB010008EB010008EB010008E0
:10005000EB010008EB010008EB010008EB010008D0
:10006000EB010008EB010008EB010008EB010008C0
:10007000EB010008EB010008EB010008EB010008B0
:10008000EB010008EB010008EB010008EB010008A0
:10009000EB010008EB010008EB010008EB01000890
:1000A000EB010008EB010008EB010008EB01000880
:1000B000EB010008EB010008EB010008EB01000870
:1000C000EB010008EB010008EB010008EB01000860
:1000D000EB010008EB010008EB010008EB01000850
:1000E000EB010008EB010008EB01000800F002F84A
:1000F00000F05EF80AA090E8000C82448344AAF164
:100100000107DA4501D100F053F8AFF2090EBAE861
:100110000F0013F0010F18BFFB1A43F0010318473B
:1001200080110000A011000010F8013B0A4413F0F8
:10013000030408BF10F8014B1D1108BF10F8015B44
:10014000641E05D010F8016B641E01F8016BF9D133
:10015000002D15D010F8014B03F00C030C2BA1EB74
:1001600004040ABF10F8013BA4EB8314A4EB03249E
:1001700005F1010314F8016B5B1E01F8016BF9D561
:10018000914238BF10F8013BD1D3704700230024BF
:1001900000250026103A28BF78C1FBD8520728BF97
:1001A00030C148BF0B6070471FB51FBD10B510BDF3
:1001B00000F031F81146FFF7F7FF00F0EFFB00F019
:1001C0004FF803B4FFF7F2FF03BC00F057F800004C
:1001D0000948804709480047FEE7FEE7FEE7FEE7DB
:1001E000FEE7FEE7FEE7FEE7FEE7FEE70448054917
:1001F000054A064B7047000091080008ED00000812
:1002000060030020600900206005002060050020D8
:10021000704770477047754600F02CF8AE460500F1
:100220006946534620F00700854618B020B5FFF711
:10023000DDFFBDE820404FF000064FF000074FF013
:1002400000084FF0000B21F00701AC46ACE8C009F4
:10025000ACE8C009ACE8C009ACE8C0098D467047FD
:1002600010B50446AFF300802046BDE81040FFF70C
:10027000A8BF000000487047000300200149182073
:10028000ABBEFEE7260002007047014605E00020F5
:1002900001E0421CD0B27B28FBDB0A1EA1F1010168
:1002A000F5D170472DE9F0410246002500260020D7
:1002B00000230024002791F803C00CF00F0591F8EB
:1002C00003C00CF0100CBCF1000F03D091F802C079
:1002D0004CEA050591F800C0BCF1000F31D014685C
:1002E00000202BE04FF0010C0CFA00F3B1F800C035
:1002F0000CEA03069E4220D183004FF00F0C0CFA4B
:1003000003F7BC4305FA03FC4CEA040491F803C06C
:10031000BCF1280F06D14FF0010C0CFA00FCC2F81A
:1003200014C00AE091F803C0BCF1480F05D14FF0AA
:10033000010C0CFA00FCC2F810C0401C0828D1D3F4
:100340001460B1F800C0BCF1FF0F34DD5468002028
:100350002EE000F1080C4FF0010808FA0CF3B1F898
:1003600000C00CEA03069E4221D183004FF00F0C1F
:100370000CFA03F7BC4305FA03FC4CEA040491F8B9
:1003800003C0BCF1280F05D100F1080C08FA0CF8E5
:10039000C2F8148091F803C0BCF1480F07D100F1F6
:1003A000080C4FF0010808FA0CF8C2F81080401C45
:1003B0000828CED35460BDE8F081416170470161E7
:1003C0007047000010B520210748FFF7F8FF802193
:1003D0000548FFF7F4FF80210348FFF7EEFF2021D7
:1003E0000148FFF7EAFF10BD0008014010B52021C9
:1003F0000548FFF7E4FF80210348FFF7DEFF802177
:100400000148FFF7DCFF10BD0008014010B52021B6
:100410000348FFF7D4FF20210148FFF7CEFF10BDAE
:100420000008014070B5002418E004F1B00000217C
:1004300000F09DF90021084600F099F900211020F4
:1004400000F095F9002505E00121002000F08FF96A
:10045000681CC5B2802DF7DB601CC4B2082CE4DB3D
:1004600070BD000008B50121042000F08DF9A02026
:10047000ADF8000010208DF8030003208DF8020075
:1004800069463C48FFF70EFFA0213A48FFF797FF67
:100490004FF44870FFF7F9FE0021AE2000F067F935
:1004A0000021084600F063F90021102000F05FF9F8
:1004B0000021402000F05BF90021B02000F057F946
:1004C0000021812000F053F90021FF2000F04FF9B6
:1004D0000021A12000F04BF90021A62000F047F9EF
:1004E0000021A82000F043F900213F2000F03FF94F
:1004F0000021C82000F03BF90021D32000F037F99B
:100500000021084600F033F90021D52000F02FF932
:100510000021802000F02BF90021D82000F027F9DD
:100520000021052000F023F90021D92000F01FF957
:100530000021F12000F01BF90021DA2000F017F96A
:100540000021122000F013F90021DB2000F00FF948
:100550000021302000F00BF900218D2000F007F978
:100560000021142000F003F90021AF2000F0FFF873
:1005700008BD00000008014070B504460D4605F1B5
:10058000B000002100F0F3F8102141EA141000211E
:1005900000F0EDF804F00F00002100F0E8F870BD65
:1005A0002DE9F04180460E4615460027314640466B
:1005B000FFF7E2FF00240AE0124A02EB8511085D12
:1005C000012100F0D4F8781CC7B2601CC4B2102C12
:1005D000F2DB701CC1B24046FFF7CEFF00240CE0F6
:1005E0006900491C074A02EB4111085D012100F036
:1005F000BEF8781CC7B2601CC4B2102CF0DBBDE89A
:10060000F0810000000000202DE9F04707460E466B
:100610009046994600250024A8F12000C5B27F2FFE
:1006200002DD0027B01CC6B2B9F1100F24D131464B
:100630003846FFF7A1FF002408E004EB0511194A32
:10064000505C012100F093F8601CC4B2082CF4DB6C
:10065000701CC1B23846FFF78FFF002409E004EB9D
:10066000051108310F4A505C012100F080F8601C30
:10067000C4B2082CF3DB12E031463846FFF77CFFAA
:1006800000240AE005EB4501074A02EB4101085D41
:10069000012100F06CF8601CC4B2062CF2DBBDE84E
:1006A000F0870000B00C0008880A00082DE9FF5F01
:1006B000074691461E460E9D4FF0000A002435E085
:1006C000301B401EC1B20A2000F0D3F9B9FBF0F094
:1006D0000A21B0FBF1F201FB1208BAF1000F14D1AC
:1006E000701EA04211DDB8F1000F0CD1AB4605EB36
:1006F000DB71491001FB0471C8B22B46202201991D
:10070000FFF782FF10E04FF0010AAB4605EBDB710B
:10071000491001FB0471C8B208F13001CAB22B467E
:100720000199FFF771FF00BF601CC4B2B442C7DB80
:10073000BDE8FF9F2DE9F04104460F461546984657
:1007400000260FE0AA5D434639462046FFF75CFFCE
:1007500004F10800C4B2782C02DD0024B81CC7B232
:10076000701CC6B2A85D0028ECD1BDE8F08170B560
:1007700004460D461DB1E0B200F0FAF802E0E0B226
:1007800000F0E0F870BD000029B1064A926902430A
:10079000044B9A6104E0034A92698243014B9A61D7
:1007A000704700000010024010B500F001F810BDC5
:1007B0000CB50020019000903348006840F4803070
:1007C0003149086000BF3048006800F400300090F4
:1007D0000198401C0190009818B90198B0F5A06FDD
:1007E000F1D12948006800F4003010B101200090D8
:1007F00001E0002000900098012843D123480068C0
:1008000040F01000214908600846006820F003000D
:1008100008600846006840F0020008601A48406816
:10082000194948600846406848600846406840F4F6
:10083000806048600846406820F47C1048600846A4
:10084000406840F4E81048600846006840F0807056
:10085000086000BF0C48006800F000700028F9D064
:100860000948406820F0030007494860084640688E
:1008700040F00200486000BF0348406800F00C00F0
:100880000828F9D10CBD00000010024000200240F1
:1008900010B51348006840F001001149086008468F
:1008A0004068104908400E494860084600680E49F3
:1008B00008400B4908600846006820F48020086062
:1008C0000846406820F4FE0048604FF41F0088602E
:1008D000FFF76AFF4FF000600449086010BD000098
:1008E000001002400000FFF8FFFFF6FE08ED00E0F8
:1008F0002DE9F04105462C4620211148FFF75DFD0A
:10090000002619E0274607F08007802F04D18021B8
:100910000B48FFF754FD03E080210948FFF74DFD28
:100920006006040E20210648FFF749FD20210448F7
:10093000FFF743FD701CC6B2082EE3DBBDE8F08173
:100940000008014010B50446FFF73CFD7820FFF792
:10095000CFFFFFF75BFD0020FFF7CAFFFFF756FD53
:100960002046FFF7C5FFFFF751FDFFF73FFD10BD24
:1009700010B50446FFF726FD7820FFF7B9FFFFF713
:1009800045FD4020FFF7B4FFFFF740FD2046FFF78D
:10099000AFFFFFF73BFDFFF729FD10BD08B54FF492
:1009A000FA5000F057F8FFF75DFDFFF73BFD2024FC
:1009B000002211461E20FFF7F3FD01220021302006
:1009C000FFF7EEFD022200214220FFF7E9FD03229E
:1009D00000215420FFF7E4FD2AE0FFF723FD102358
:1009E00014A203210620FFF7A5FE102315A206215D
:1009F0000020FFF79FFE1023224606213020FFF73C
:100A000003FE102311A206213F20FFF793FE1020C2
:100A100003232246062100906720FFF747FE601C53
:100A2000C4B27E2C00DD20244FF4FA6000F012F8EE
:100A3000D3E70000302E393627204F4C4544205450
:100A40004553540041534349493A0000434F4445FC
:100A50003A0000000146002006E0002000E0401CB3
:100A600041F672729042FADB0A1EA1F10101F4D143
:100A7000704710B50246012000E050430B1EA1F163
:100A80000104E1B2F9D110BD000000000000000037
:100A9000002F000000000700070000147F147F14DF
:100AA00000242A7F2A120062640813230036495565
:100AB000225000000503000000001C22410000003D
:100AC00041221C000014083E08140008083E0808D3
:100AD000000000A06000000808080808000060602E
:100AE0000000002010080402003E5149453E00006D
:100AF000427F4000004261514946002141454B314F
:100B0000001814127F10002745454539003C4A491A
:100B1000493000017109050300364949493600068C
:100B20004949291E000036360000000056360000F4
:100B3000000814224100001414141414000041226F
:100B4000140800020151090600324959513E007C47
:100B50001211127C007F49494936003E4141412231
:100B6000007F4141221C007F49494941007F09091A
:100B70000901003E4149497A007F0808087F0000CA
:100B8000417F4100002040413F01007F0814224185
:100B9000007F40404040007F020C027F007F04083D
:100BA000107F003E4141413E007F09090906003E99
:100BB0004151215E007F09192946004649494931C2
:100BC0000001017F0101003F4040403F001F2040E5
:100BD000201F003F4038403F0063140814630007A3
:100BE0000870080700615149454300007F414100FA
:100BF00000552A552A55000041417F00000402019A
:100C00000204004040404040000001020400002077
:100C100054545478007F48444438003844444420B5
:100C200000384444487F00385454541800087E0962
:100C300001020018A4A4A47C007F0804047800002A
:100C4000447D4000004080847D00007F10284400E7
:100C50000000417F4000007C04180478007C0804F8
:100C6000047800384444443800FC24242418001834
:100C7000242418FC007C0804040800485454542020
:100C800000043F444020003C4040207C001C2040A9
:100C9000201C003C4030403C004428102844001CEC
:100CA000A0A0A07C004464544C44141414141414E4
:100CB0000000000000000000000000000000000034
:100CC000000000F8000000000000003330000000C9
:100CD00000100C06100C06000000000000000000D0
:100CE00040C07840C0784000043F04043F04040042
:100CF000007088FC08300000001820FF211E000052
:100D0000F008F000E018000000211C031E211E0066
:100D100000F00888700000001E21232419272110EC
:100D200010160E000000000000000000000000008F
:100D3000000000E018040200000000071820400036
:100D400000020418E0000000004020180700000026
:100D5000404080F0804040000202010F010202008A
:100D6000000000F0000000000101011F010101006E
:100D7000000000000000000080B0700000000000D3
:100D8000000000000000000000010101010101015C
:100D900000000000000000000030300000000000F3
:100DA00000000000806018040060180601000000C8
:100DB00000E010080810E000000F102020100F00C5
:100DC000001010F8000000000020203F202000004C
:100DD00000700808088870000030282422213000A4
:100DE00000300888884830000018202020110E00AC
:100DF0000000C02010F8000000070424243F240055
:100E000000F80888880808000019212020110E0029
:100E100000E0108888180000000F112020110E003B
:100E200000380808C83808000000003F0000000033
:100E30000070880808887000001C222121221C00F4
:100E400000E010080810E0000000312222110F001D
:100E5000000000C0C00000000000003030000000B2
:100E60000000008000000000000080600000000022
:100E7000000080402010080000010204081020003B
:100E80004040404040404000040404040404040086
:100E9000000810204080000000201008040201001B
:100EA000007048080808F00000000030360100001B
:100EB000C030C828E810E0000718272423140B00CE
:100EC0000000C038E0000000203C23020227382048
:100ED00008F8888888700000203F202020110E002C
:100EE000C030080808083800071820202010080023
:100EF00008F808080810E000203F202020100F000C
:100F000008F88888E8081000203F202023201800D7
:100F100008F88888E8081000203F2000030000003F
:100F2000C03008080838000007182020221E0200E0
:100F300008F808000008F808203F210101213F209F
:100F4000000808F8080800000020203F20200000CA
:100F500000000808F8080800C08080807F000000BA
:100F600008F888C028180800203F200126382000F3
:100F700008F8080000000000203F2020202030005A
:100F800008F8F800F8F80800203F003F003F200074
:100F900008F830C00008F808203F200007183F007C
:100FA000E01008080810E0000F10202020100F00AB
:100FB00008F808080808F000203F2101010100009E
:100FC000E01008080810E0000F18242438504F00E3
:100FD00008F8888888887000203F2000030C3020A3
:100FE00000708808080838000038202121221C00E1
:100FF000180808F8080818000000203F200000002A
:1010000008F808000008F808001F202020201F0012
:101010000878880000C83808000007380E01000072
:10102000F80800F80008F800033C0700073C03003C
:10103000081868808068180820302C03032C3020A2
:101040000838C800C83808000000203F2000000011
:1010500010080808C8380800203826212020180069
:10106000000000FE020202000000007F404040003D
:10107000000C30C000000000000000010638C00075
:1010800000020202FE000000004040407F0000001D
:101090000000040202020400000000000000000042
:1010A0000000000000000000808080808080808040
:1010B0000002020400000000000000000000000028
:1010C00000008080808000000019242222223F201E
:1010D00008F8008080000000003F112020110E0061
:1010E0000000008080800000000E112020201100F0
:1010F000000000808088F800000E112020103F20A2
:101100000000808080800000001F22222222130025
:10111000008080F0888888180020203F2020000070
:101120000000808080808000006B94949493600025
:1011300008F8008080800000203F210000203F2030
:1011400000809898000000000020203F2020000030
:10115000000000809898000000C08080807F000020
:1011600008F8000080808000203F24022D302000FD
:10117000000808F8000000000020203F20200000A8
:101180008080808080808000203F20003F20003FC2
:101190008080008080800000203F210000203F20D0
:1011A0000000808080800000001F202020201F0081
:1011B000808000808000000080FFA12020110E00B0
:1011C0000000008080808000000E112020A0FF80A1
:1011D000808080008080800020203F21200001004E
:1011E00000008080808080000033242424241900A3
:1011F000008080E0808000000000001F20200000B0
:101200008080000000808000001F202020103F20F0
:10121000808080000080808000010E300806010080
:1012200080800080008080800F300C030C300F0025
:1012300000808000808080000020312E0E31200050
:10124000808080000080808080818E701806010080
:1012500000808080808080000021302C222130009E
:1012600000000000807C020200000000003F4040BF
:1012700000000000FF00000000000000FF00000070
:101280000002027C800000000040403F000000009F
:10129000000601010202040400000000000000003A
:1012A000C012000800000020000300002801000810
:1012B0000814000800030020600600008C010008EC
:1012C000F010201008FC032020107F88888482E022
:1012D00000011005040404050443FF0401F120107B
:1012E0000B1060028C00445454547F04031144409A
:1012F00040000C107E010000FF15151555957F5F0D
:10130000200B00404042CC002022E22203021120A8
:1013100021000F1180403F40A0988780809FA0A0AF
:10132000BC8042100700FE020202F2040212FE1DFF
:10133000100C80804047201806017E8080440110F8
:10134000E11302027B33FE2204000411E202025F79
:10135000000C11FF484443404040434444FFC00553
:101360003E4042200152FF080112C0040C10201020
:101370000C0300030C102040800010084030119630
:10138000909091040406129814135030C00408156C
:10139000040444847E0605C0000F1010D0FF901096
:1013A000804828090E0828488840000D120300FFD5
:1013B00000018080432C102C43801A403D080A1005
:1013C0000804E304081020204000153A227F04227C
:1013D00042010113201404202050620004134448E9
:1013E000504025E0313C07134242E0100B00806082
:1013F000F80740300FF88801F70808E0297D35C666
:08140000220801011042000066
:04000005080000ED02
:00000001FF
