:020000040800F2
:100000004004002001010008090100080B0100085C
:100010000D0100080F010008110100080000000098
:1000200000000000000000000000000013010008B4
:100030001501000800000000170100081901000860
:100040001B0100081B0100081B0100081B01000820
:100050001B0100081B0100081B0100081B01000810
:100060001B0100081B0100081B0100081B01000800
:100070001B0100081B0100081B0100081B010008F0
:100080001B0100081B0100081B0100081B010008E0
:100090001B0100081B0100081B0100081B010008D0
:1000A0001B0100081B0100081B0100081B010008C0
:1000B0001B0100081B0100081B0100081B010008B0
:1000C0001B0100081B0100081B0100081B010008A0
:1000D0001B010008450600081B0100081B01000861
:1000E0001B0100081B0100081B010008DFF80CD0F1
:1000F00000F04AF800480047990E0008400400202C
:100100000648804706480047FEE7FEE7FEE7FEE7B1
:10011000FEE7FEE7FEE7FEE7FEE7FEE7E50500088F
:10012000ED0000082DE9F05F0546002092469B4651
:1001300088460646814640241BE0284641464746FD
:10014000224600F042F853465A46C01A914110D355
:1001500011461846224600F029F82D1A67EB0108CF
:100160004F4622460120002100F020F817EB00093D
:100170004E41201EA4F10104DFDC484631462A46E8
:100180004346BDE8F09F0000064C074D06E0E068DE
:1001900040F0010394E8070098471034AC42F6D3CE
:1001A000FFF7A8FFC00F0008E00F0008202A04DBBB
:1001B000203A00FA02F1002070479140C2F120037A
:1001C00020FA03F3194390407047202A04DB203AB9
:1001D00021FA02F00021704721FA02F3D040C2F167
:1001E000200291400843194670472DE9F04102462C
:1001F00000250026002000230024002791F803C0DA
:100200000CF00F0591F803C00CF0100CBCF1000FBE
:1002100003D091F802C04CEA050591F800C0BCF18A
:10022000000F31D0146800202BE04FF0010C0CFAC5
:1002300000F3B1F800C00CEA03069E4220D183000F
:100240004FF00F0C0CFA03F7BC4305FA03FC4CEA21
:10025000040491F803C0BCF1280F06D14FF0010C43
:100260000CFA00FCC2F814C00AE091F803C0BCF11B
:10027000480F05D14FF0010C0CFA00FCC2F810C079
:10028000401C0828D1D31460B1F800C0BCF1FF0FA6
:1002900034DD546800202EE000F1080C4FF0010816
:1002A00008FA0CF3B1F800C00CEA03069E4221D113
:1002B00083004FF00F0C0CFA03F7BC4305FA03FC64
:1002C0004CEA040491F803C0BCF1280F05D100F1F9
:1002D000080C08FA0CF8C2F8148091F803C0BCF1BD
:1002E000480F07D100F1080C4FF0010808FA0CF88C
:1002F000C2F81080401C0828CED35460BDE8F081BD
:100300000246002093680B400BB1012000E0002062
:1003100070470AB1016100E04161704708B50121F1
:10032000082000F071F801208DF8020010208DF8EF
:1003300003004FF43040ADF8000069460E48FFF767
:1003400054FF01208DF8020048208DF803004FF47F
:100350008040ADF8000069460748FFF746FF0122DC
:1003600011030548FFF7D5FF00224FF40051024862
:10037000FFF7CFFF08BD0000000C014010B50022C0
:100380004FF480510148FFF7C4FF10BD000C01403D
:1003900010B5012211030248FFF7BBFF10BD00009A
:1003A000000C014070B505460026072425E0012019
:1003B000A040284028B10122D1031248FFF7A9FF2D
:1003C00005E000224FF400410E48FFF7A2FF012292
:1003D00051030C48FFF79DFF4FF480410948FFF798
:1003E0008FFF012802D1A0403043C6B200224FF453
:1003F00000510448FFF78DFF641E002CD7DA304609
:1004000070BD0000000C014029B1064A9269024308
:10041000044B9A6104E0034A92698243014B9A615A
:10042000704700000010024030B500210022002477
:1004300000232D4D6D6805F00C0121B1042905D074
:10044000082923D105E0294D056022E0274D0560EC
:100450001FE0254D6D6805F47012234D6D6805F49D
:100460008034022505EB92421CB9214D55430560AD
:100470000BE01D4D6D6805F400351DB11C4D554355
:10048000056002E0194D5543056002E0174D056017
:1004900000BF00BF144D6D6805F0F0010909154D4E
:1004A0006B5C0568DD4045600F4D6D6805F4E061EB
:1004B000090A104D6B5C4568DD4085600A4D6D682A
:1004C00005F46051C90A0B4D6B5C4568DD40C560A1
:1004D000054D6D6805F44041890B074D6B5CC5689F
:1004E000B5FBF3F5056130BD0010024000127A0043
:1004F00000093D00020000201200002010B500F0AD
:1005000001F810BD0CB50020019000903348006840
:1005100040F480303149086000BF3048006800F482
:10052000003000900198401C0190009818B9019883
:10053000B0F5A06FF1D12948006800F4003010B187
:100540000120009001E0002000900098012843D194
:100550002348006840F01000214908600846006800
:1005600020F0030008600846006840F002000860C0
:100570001A4840681949486008464068486008467B
:10058000406840F4806048600846406820F47C1071
:1005900048600846406840F4E81048600846006833
:1005A00040F08070086000BF0C48006800F00070E8
:1005B0000028F9D00948406820F003000749486046
:1005C0000846406840F00200486000BF03484068A9
:1005D00000F00C000828F9D10CBD0000001002400A
:1005E0000020024010B51348006840F00100114996
:1005F000086008464068104908400E4948600846AF
:1006000000680E4908400B4908600846006820F45D
:10061000802008600846406820F4FE0048604FF4DF
:100620001F008860FFF76AFF4FF000600449086010
:1006300010BD0000001002400000FFF8FFFFF6FEB2
:1006400008ED00E010B540F22551024800F010F826
:1006500010BD00000038014021B1828942F40052EF
:10066000828104E082894DF6FF731A4082817047CF
:1006700070B50246002400230025002040F66A16CB
:10068000B14200D100BFC1F3421501F01F030126A2
:1006900006FA03F3012D02D19689334006E0022DBC
:1006A00002D1168A334001E0968A33400C120126AB
:1006B00006FA04F41688344013B10CB1012000E0AE
:1006C000002070BD2DE9F04786B005460E46002497
:1006D000A24600BFA1460027B08900B100BF2F4647
:1006E0002C8A4CF6FF700440F08804432C82AC89BD
:1006F0004EF6F3100440B0883189084371890843ED
:100700000443AC81AC8A4FF6FF400440B0890443F7
:10071000AC8201A8FFF788FE1F48874202D1DDF8AE
:1007200010A001E0DDF80CA0A88900F4004040B161
:100730000AEBCA0000EB0A1031684900B0FBF1F87F
:1007400007E00AEBCA0000EB0A1031688900B0FB31
:10075000F1F86420B8FBF0F004012009642101FBEA
:100760001089A88900F4004040B1322000EBC90094
:10077000B0FBF1F000F00700044308E0322000EB8A
:1007800009106421B0FBF1F000F00F0004432C814C
:1007900006B0BDE8F08700000038014001468888B7
:1007A000C0F308007047000010B586B00446012170
:1007B0000420FFF729FE01218803FFF725FE1820FA
:1007C0008DF817004FF40070ADF8140003208DF879
:1007D000160005A91348FFF708FD04208DF817003F
:1007E0000002ADF8140003208DF8160005A90D488D
:1007F000FFF7FBFC01940020ADF810000C20ADF8D1
:100800000E000020ADF80C00ADF80A00ADF80800AD
:1008100001A90548FFF756FF01210348FFF71CFF18
:1008200006B010BD000801400038014070B5054613
:100830002C0300F091F800F085F800224FF480516D
:100840000C48FFF766FD2020FFF7ACFDC4F307401E
:10085000FFF7A8FDC4F30720FFF7A4FDE0B2FFF700
:10086000A1FD012211030348FFF753FD00F06AF8D0
:1008700070BD0000000C014010B5FFF74FFD10BD2A
:100880002DE9F04105460C46164600224FF48051F2
:100890001048FFF73EFD0320FFF784FDC4F3074037
:1008A000FFF780FDC4F30720FFF77CFDE0B2FFF700
:1008B00079FD002705E0FF20FFF774FD28706D1C0F
:1008C0007F1CB742F7D3012211030248FFF721FD35
:1008D000BDE8F081000C014010B5002400224FF467
:1008E00080510848FFF715FD0520FFF75BFDFF204D
:1008F000FFF758FD0446012211030248FFF709FDE6
:10090000204610BD000C014070B505460024FFF7DD
:1009100035FD9020FFF746FD0020FFF743FD002046
:10092000FFF740FD0020FFF73DFDFF20FFF73AFDF8
:1009300044EA0024FF20FFF735FD04432C80FFF735
:1009400027FD70BD10B500BFFFF7C6FF00F0010026
:100950000028F9D110BD000010B500224FF48051DD
:100960000548FFF7D6FC0620FFF71CFD0122110306
:100970000148FFF7CEFC10BD000C01402DE9F0410D
:1009800006460C461746FFF7E7FF00224FF480515A
:100990001048FFF7BEFC0220FFF704FDC4F3074038
:1009A000FFF700FDC4F30720FFF7FCFCE0B2FFF700
:1009B000F9FC002503E0705DFFF7F4FC6D1CBD42FF
:1009C000F9DB012211030348FFF7A3FCFFF7BAFF8D
:1009D000BDE8F081000C01400FB4054B10B503A930
:1009E000044A029800F018F810BC5DF814FB0000EF
:1009F0007D0E00081800002002E008C8121F08C180
:100A0000002AFAD170477047002001E001C1121F8F
:100A1000002AFBD1704700002DE9FF4F8DB00F4633
:100A20000546002606E025280BD0DDE90F12904789
:100A30006D1C761C28780028F5D111B03046BDE831
:100A4000F08F0024A246A1460122EC4900E00443B5
:100A500015F8013F203B02FA03F00842F7D128784D
:100A60002A2810D06FF02F022878A0F13001092930
:100A700014D80AEB8A0102EB410144F0020400EBB6
:100A8000010A6D1CF0E701CF5FEA000A03D544F4C8
:100A90000054CAF1000A44F002046D1C28782E2884
:100AA00017D115F8010F44F004042A280ED06FF076
:100AB0002F022878A0F1300109290AD809EB890111
:100AC00002EB410100EB01096D1CF2E757F8049BB2
:100AD0006D1C28786C280FD006DC4C2817D06828AD
:100AE0000DD06A2814D104E0742810D07A280FD1D0
:100AF0000DE044F400140AE044F4801401E044F4EE
:100B000040146978814202D104F580146D1C6D1C7B
:100B10002A786E2A1FD00CDC632A31D004DC002A2C
:100B20008BD0582A11D1A3E0642A68D0692A0CD14D
:100B300065E0732A2ED004DC6F2A73D0702A04D1AA
:100B40009BE0752A6FD0782A6ED01046DDE90F122F
:100B50009047761C50E1C4F30250022806D00328C7
:100B600009D0042801CF09D0066045E101CFF11773
:100B7000C0E9006140E101CF06803DE106703BE144
:100B800017F8040B8DF8000000208DF80100EB46EB
:100B9000012003E057F804BB4FF0FF3061074FF02E
:100BA000000102D40DE008F10101884649450FDA41
:100BB0008045F8DB1BF808100029F4D108E008F1A3
:100BC000010188468142FADB1BF808100029F6D1A2
:100BD000DDE90F23AAEB08008146214600F036F933
:100BE000304400EB080604E0DDE90F121BF8010BAE
:100BF0009047B8F10108F7D221464846F7E00A21AC
:100C0000C4F302534FF0000B0891022B04D001CF24
:100C1000C117032B09D00AE0FF1D27F00707F7E8EB
:100C2000020108E032E01FE020E000B2C117042B0F
:100C300001D140B2C117031E71F1000307DA4FF072
:100C4000000CD0EB0C006CEB01012D2302E023051E
:100C500004D52B238DF82430012303E0E30701D0D2
:100C60002023F7E7984658E00A2110E010210EE013
:100C700010204FF0000B08900CE010214FF0000BFB
:100C800044F004044FF00809089103E008214FF0F4
:100C9000000B0891C4F30253022B04D001CF0021B2
:100CA000032B06D006E0FF1D27F00707F7E8020137
:100CB00003E080B2042B00D1C0B24FF0000823073C
:100CC0002BD5702A07D0DDF820C08CF0100C5CEA20
:100CD0000B0C05D00EE040238DF82430012308E0F2
:100CE00050EA010306D030238DF824308DF82520FA
:100CF00002239846DDF820C08CF0080C5CEA0B0C4F
:100D00000BD150EA010301D1630706D530238DF8DA
:100D100024304FF00108A9F10109582A04D038A263
:100D20000B9208AA0A920BE03AA2F9E75B46089AEE
:100D3000FFF7F8F90B9B9B5C0A9A521E0A921370FC
:100D400050EA0102F2D10A98ADEB000000F1200B4D
:100D5000600702D524F4803401E04FF00109D94541
:100D600002DDA9EB0B0000E0002000EB0B01414489
:100D70000890AAEB010AE00306D4DDE90F2321461F
:100D8000504600F063F806444FF0000908E009A956
:100D900011F80900DDE90F12904709F10109761CED
:100DA000C145F4DBE0030CD5DDE90F2321465046B5
:100DB00000F04CF8064404E0DDE90F1230209047C3
:100DC000761C0899481E08900029F5DC08E00A986E
:100DD0000A990078491C0A91DDE90F129047761CA8
:100DE000BBF10001ABF1010BF1DC21465046DDE91E
:100DF0000F2300F019F806446D1C1BE609280100BA
:100E00003031323334353637383961626364656680
:100E10000000000030313233343536373839414242
:100E200043444546000000002DE9F04104460025FA
:100E30001E461746880404D405E039462020B047F2
:100E40006D1C641EF9D52846BDE8F0812DE9F041FE
:100E5000044600251E469046C80301D5302700E011
:100E60002027880404D505E041463846B0476D1C6C
:100E7000641EF9D52846BDE8F081000000BF054A90
:100E8000128802F04002002AF9D0C2B2014B1B1DA9
:100E90001A807047003801404FF4E130FFF784FCBE
:100EA000FFF7EAFC23A0FFF797FD42E024A0FFF73D
:100EB00093FD00BF2F48008800F020000028F9D0E3
:100EC0002C48FFF76BFC05462BA0FFF785FD312D65
:100ED00006D0322D0DD0332D0FD0342D27D112E076
:100EE0002948FFF711FD2848018828A0FFF774FD65
:100EF00000BF0020FFF79AFC1AE00B22012127A077
:100F0000FFF73CFD14E0202201212748FFF7B8FC41
:100F1000002405E02448015D24A0FFF75DFD641C6A
:100F2000202CF7D3204923A0FFF756FD00E000BF97
:100F300000BFBBE757323551585F44454D4F0A005B
:100F4000312EB2E9BFB4C9E8B1B8C0E0D0CD20328B
:100F50002EC9BEB3FDC9C8C7F82020332ED0B4C8EF
:100F6000EBCAFDBEDD2020342EB2E9BFB4CAFDBEFF
:100F7000DD0A000000380140787878787878787851
:100F80007878787878780A0000000020666C6173C1
:100F9000685F69643A2523780A00000078787878D9
:100FA0007820776F726C64001C000020252330329B
:100FB00058200000726561643A25730A0000000041
:100FC000E00F0008000000201C000000F8090008E5
:100FD000FC0F00081C00002024040000080A000880
:100FE00000000000000001020304010203040607E0
:0C0FF000080902040608000000000000D0
:04000005080000ED02
:00000001FF
