:020000040800F2
:100000004004002001010008090100080B0100085C
:100010000D0100080F010008110100080000000098
:1000200000000000000000000000000013010008B4
:100030001501000800000000170100081901000860
:100040001B0100081B0100081B0100081B01000820
:100050001B0100081B0100081B0100081B01000810
:100060001B0100081B0100081B0100081B01000800
:100070001B0100081B0100081B0100081B010008F0
:100080001B0100081B0100081B0100081B010008E0
:100090001B0100081B0100081B0100081B010008D0
:1000A0001B0100081B0100081B0100081B010008C0
:1000B0001B0100081B0100081B0100081B010008B0
:1000C0001B0100081B0100081B0100081B010008A0
:1000D0001B010008450500081B0100081B01000862
:1000E0001B0100081B0100081B010008DFF80CD0F1
:1000F00000F02AF800480047CD080008400400201E
:100100000648804706480047FEE7FEE7FEE7FEE7B1
:10011000FEE7FEE7FEE7FEE7FEE7FEE7E504000890
:10012000ED000008D2B201E000F8012B491EFBD21D
:1001300070470022F6E710B513460A4604461946F2
:10014000FFF7F0FF204610BD064C074D06E0E068C3
:1001500040F0010394E8070098471034AC42F6D30E
:10016000FFF7C8FFF8090008180A00082DE9F04158
:10017000024600250026002000230024002791F8D5
:1001800003C00CF00F0591F803C00CF0100CBCF18B
:10019000000F03D091F802C04CEA050591F800C0A9
:1001A000BCF1000F31D0146800202BE04FF0010C9F
:1001B0000CFA00F3B1F800C00CEA03069E4220D10D
:1001C00083004FF00F0C0CFA03F7BC4305FA03FC55
:1001D0004CEA040491F803C0BCF1280F06D14FF09B
:1001E000010C0CFA00FCC2F814C00AE091F803C03C
:1001F000BCF1480F05D14FF0010C0CFA00FCC2F81D
:1002000010C0401C0828D1D31460B1F800C0BCF164
:10021000FF0F34DD546800202EE000F1080C4FF091
:10022000010808FA0CF3B1F800C00CEA03069E427C
:1002300021D183004FF00F0C0CFA03F7BC4305FAF1
:1002400003FC4CEA040491F803C0BCF1280F05D16B
:1002500000F1080C08FA0CF8C2F8148091F803C0F9
:10026000BCF1480F07D100F1080C4FF0010808FA63
:100270000CF8C2F81080401C0828CED35460BDE8AA
:10028000F081000070B5002100230F22C47804B370
:10029000154C246804F4E064C4F5E064210AC1F15B
:1002A0000403CA40447804FA03F1847814402143DB
:1002B00009010E4C0678A155047804F01F050124AD
:1002C000AC4005786D11AD0005F1E025C5F80041A1
:1002D00009E0047804F01F050124AC40044D0678C1
:1002E000761145F8264070BD0CED00E000E400E01A
:1002F00080E100E002490143024A116070470000BA
:100300000000FA050CED00E029B1064A92690243AB
:10031000044B9A6104E0034A92698243014B9A615B
:10032000704700000010024030B500210022002478
:1003300000232D4D6D6805F00C0121B1042905D075
:10034000082923D105E0294D056022E0274D0560ED
:100350001FE0254D6D6805F47012234D6D6805F49E
:100360008034022505EB92421CB9214D55430560AE
:100370000BE01D4D6D6805F400351DB11C4D554356
:10038000056002E0194D5543056002E0174D056018
:1003900000BF00BF144D6D6805F0F0010909154D4F
:1003A0006B5C0568DD4045600F4D6D6805F4E061EC
:1003B000090A104D6B5C4568DD4085600A4D6D682B
:1003C00005F46051C90A0B4D6B5C4568DD40C560A2
:1003D000054D6D6805F44041890B074D6B5CC568A0
:1003E000B5FBF3F5056130BD0010024000127A0044
:1003F00000093D00080000201800002010B500F0A2
:1004000001F810BD0CB50020019000903348006841
:1004100040F480303149086000BF3048006800F483
:10042000003000900198401C0190009818B9019884
:10043000B0F5A06FF1D12948006800F4003010B188
:100440000120009001E0002000900098012843D195
:100450002348006840F01000214908600846006801
:1004600020F0030008600846006840F002000860C1
:100470001A4840681949486008464068486008467C
:10048000406840F4806048600846406820F47C1072
:1004900048600846406840F4E81048600846006834
:1004A00040F08070086000BF0C48006800F00070E9
:1004B0000028F9D00948406820F003000749486047
:1004C0000846406840F00200486000BF03484068AA
:1004D00000F00C000828F9D10CBD0000001002400B
:1004E0000020024010B51348006840F00100114997
:1004F000086008464068104908400E4948600846B0
:1005000000680E4908400B4908600846006820F45E
:10051000802008600846406820F4FE0048604FF4E0
:100520001F008860FFF76AFF4FF000600449086011
:1005300010BD0000001002400000FFF8FFFFF6FEB3
:1005400008ED00E010B540F225511C4800F066F8B7
:10055000012832D1194800F01DF9C4B20D2C01D088
:100560000A2C0FD116480068002821DD002015490B
:10057000134A12688854012013490860002010496A
:10058000086015E00E4800681F2808DA0C4801686A
:100590000068401C0A4A10600A48445408E00020E1
:1005A0000849C8770120084908600020044908600C
:1005B00040F22551014800F009F810BD0038014013
:1005C00004000020200000200000002010B50022C0
:1005D000002340F66A14A14200D100BF0A12012490
:1005E0009440A3B2DC43048010BD21B1828942F45F
:1005F0000052828104E082894DF6FF731A408281A5
:10060000704702460020B1F5007F00D100BF13887B
:100610000B400BB1012000E00020704770B502468E
:10062000002400230025002040F66A16B14200D1C4
:1006300000BFC1F3421501F01F03012606FA03F3C0
:10064000012D02D19689334006E0022D02D1168A8F
:10065000334001E0968A33400C12012606FA04F476
:100660001688344013B10CB1012000E0002070BDA9
:10067000F0B50346002400260025002040F66A1746
:10068000B94200D100BF1846C1F3421401F01F0661
:10069000012707FA06F5012C01D10C3004E0022CE9
:1006A00001D1103000E014301AB107682F43076001
:1006B00002E00768AF430760F0BD00002DE9F04796
:1006C00086B005460E460024A24600BFA14600277C
:1006D000B08900B100BF2F462C8A4CF6FF70044051
:1006E000F08804432C82AC894EF6F3100440B088A5
:1006F00031890843718908430443AC81AC8A4FF6C1
:10070000FF400440B0890443AC8201A8FFF70CFE0F
:100710001F48874202D1DDF810A001E0DDF80CA0EF
:10072000A88900F4004040B10AEBCA0000EB0A10AF
:1007300031684900B0FBF1F807E00AEBCA0000EBB2
:100740000A1031688900B0FBF1F86420B8FBF0F0C2
:1007500004012009642101FB1089A88900F40040EC
:1007600040B1322000EBC900B0FBF1F000F007000F
:10077000044308E0322000EB09106421B0FBF1F0E3
:1007800000F00F0004432C8106B0BDE8F0870000A4
:100790000038014001468888C0F308007047C1F363
:1007A00008028280704700000FB4054B10B503A902
:1007B000044A029800F017F810BC5DF814FB000022
:1007C000BD0800081C00002002E008C8121F08C174
:1007D000002AFAD170477047002001E001C1121FC2
:1007E000002AFBD170472DE9F84F9946924688467A
:1007F0000546002706E025280AD051464A4690477C
:100800006D1C7F1C28780028F5D13846BDE8F88F8C
:10081000002315F8011F18462E2915D115F8011FC0
:1008200004232A290DD06FF02F022978A1F130047A
:10083000092C09D800EB800002EB400008446D1C35
:10084000F3E758F8040B6D1C2A78002ADDD0632AE0
:1008500007D0732A0FD0104651464A4690477F1C56
:100860002AE018F8042B8DF8002000218DF80110E3
:100870006E46012103E058F8046B4FF0FF315A0730
:100880004FF0000401D409E0641C84420BDA8C426E
:10089000FADB325D002AF7D105E0641C8C42FCDBF8
:1008A000305D0028F9D1274404E016F8010B5146C9
:1008B0004A469047641EF8D26D1CA3E770B5044603
:1008C0000D46A0B200F088F8002070BD00F02CF8B2
:1008D00000F03EF809A0FFF767FF0DE00D48006843
:1008E00050B10D490DA0FFF75FFF20210A48FFF727
:1008F00020FC002007490860F0E700007573617272
:100900007420696E697420737563636573730D0A6F
:1009100000000000000000202000002072656376C7
:100920003A2025730D0A000008B54FF4A060FFF7C8
:10093000E1FC25208DF8000000208DF80100012049
:100940008DF802008DF803006846FFF79BFC08BD98
:1009500000B585B0012144F20500FFF7D5FC4FF446
:100960000070ADF8100003208DF8120018208DF8EB
:10097000130004A91648FFF7F9FB4FF48060ADF8A7
:10098000100048208DF8130004A91148FFF7EEFB72
:100990004FF4E13000900020ADF80400ADF80600FF
:1009A000ADF80800ADF80C000C20ADF80A0069465F
:1009B0000848FFF783FE012240F225510548FFF762
:1009C00057FE01210348FFF710FE05B000BD0000EF
:1009D000000801400038014010B5044600BF8021E6
:1009E0000448FFF70EFE0028F9D021460148FFF722
:1009F000D6FE10BD00380140180A00080000002093
:100A000020000000C8070008380A00082000002065
:100A100020040000D80700080000000000000000CB
:100A20000000000001020304010203040607080994
:080A30000204060800000000AA
:04000005080000ED02
:00000001FF
