:020000040800F2
:1000000048080020C9010008D1010008D3010008F8
:10001000D5010008D7010008D90100080000000040
:10002000000000000000000000000000DB010008EC
:10003000DD01000800000000DF010008E101000808
:10004000E3010008E3010008E3010008E301000800
:10005000E3010008E3010008E3010008E3010008F0
:10006000E3010008E3010008E3010008E3010008E0
:10007000E3010008E3010008E3010008E3010008D0
:10008000E3010008E3010008E3010008E3010008C0
:10009000E3010008E3010008E3010008E3010008B0
:1000A000E3010008E3010008E3010008E3010008A0
:1000B000E3010008E3010008E3010008E301000890
:1000C000E3010008E3010008E3010008E301000880
:1000D000E3010008E3010008E3010008E301000870
:1000E000E3010008E3010008E301000800F002F862
:1000F00000F05AF80AA090E8000C82448344AAF168
:100100000107DA4501D100F04FF8AFF2090EBAE865
:100110000F0013F0010F18BFFB1A43F0010318473B
:1001200064060000840600000A444FF0000C10F83A
:10013000013B13F0070408BF10F8014B1D1108BF65
:1001400010F8015B641E05D010F8016B641E01F805
:10015000016BF9D113F0080F1EBF10F8014BAD1C55
:100160000C1B09D16D1E58BF01F801CBFAD505E073
:1001700014F8016B01F8016B6D1EF9D59142D6D3CD
:10018000704700000023002400250026103A28BFF5
:1001900078C1FBD8520728BF30C148BF0B607047F9
:1001A0001FB51FBD10B510BD00F031F81146FFF7A7
:1001B000F7FF00F08FFA00F04FF803B4FFF7F2FFFB
:1001C00003BC00F057F80000094880470948004781
:1001D000FEE7FEE7FEE7FEE7FEE7FEE7FEE7FEE7F7
:1001E000FEE7FEE704480549054A064B7047000054
:1001F000C1040008ED000008480200204808002063
:100200004804002048040020704770477047754636
:1002100000F02CF8AE4605006946534620F0070072
:10022000854618B020B5FFF7DDFFBDE820404FF050
:1002300000064FF000074FF000084FF0000B21F0D0
:100240000701AC46ACE8C009ACE8C009ACE8C0099D
:10025000ACE8C0098D46704710B50446AFF3008086
:100260002046BDE81040FFF7A8BF000000487047D7
:10027000E401002001491820ABBEFEE72600020081
:1002800070472DE9F041024600250026002000239A
:100290000024002791F803C00CF00F0591F803C06B
:1002A0000CF0100CBCF1000F03D091F802C04CEA26
:1002B000050591F800C0BCF1000F31D01468002092
:1002C0002BE04FF0010C0CFA00F3B1F800C00CEA7F
:1002D00003069E4220D183004FF00F0C0CFA03F767
:1002E000BC4305FA03FC4CEA040491F803C0BCF1DA
:1002F000280F06D14FF0010C0CFA00FCC2F814C014
:100300000AE091F803C0BCF1480F05D14FF0010C91
:100310000CFA00FCC2F810C0401C0828D1D31460AD
:10032000B1F800C0BCF1FF0F34DD546800202EE0AE
:1003300000F1080C4FF0010808FA0CF3B1F800C006
:100340000CEA03069E4221D183004FF00F0C0CFAF9
:1003500003F7BC4305FA03FC4CEA040491F803C01C
:10036000BCF1280F05D100F1080C08FA0CF8C2F80E
:10037000148091F803C0BCF1480F07D100F1080CBC
:100380004FF0010808FA0CF8C2F81080401C082849
:10039000CED35460BDE8F08129B1064AD269024348
:1003A000044BDA6104E0034AD2698243014BDA610B
:1003B000704700000010024029B1064A92690243CA
:1003C000044B9A6104E0034A92698243014B9A61AB
:1003D000704700000010024010B500F001F810BD99
:1003E0000CB50020019000903348006840F4803044
:1003F0003149086000BF3048006800F400300090C8
:100400000198401C0190009818B90198B0F5A06FB0
:10041000F1D12948006800F4003010B101200090AB
:1004200001E0002000900098012843D12348006893
:1004300040F01000214908600846006820F00300E1
:1004400008600846006840F0020008601A484068EA
:10045000194948600846406848600846406840F4CA
:10046000806048600846406820F47C104860084678
:10047000406840F4E81048600846006840F080702A
:10048000086000BF0C48006800F000700028F9D038
:100490000948406820F00300074948600846406862
:1004A00040F00200486000BF0348406800F00C00C4
:1004B0000828F9D10CBD00000010024000200240C5
:1004C00010B51348006840F0010011490860084663
:1004D0004068104908400E494860084600680E49C7
:1004E00008400B4908600846006820F48020086036
:1004F0000846406820F4FE0048604FF41F00886002
:10050000FFF76AFF4FF000600449086010BD00006B
:10051000001002400000FFF8FFFFF6FE08ED00E0CB
:1005200021B1028842F00102028004E002884FF605
:10053000FE731A400280704770B500240022002329
:10054000058C4FF6FE7635400584028C8388048B3B
:100550004FF68F752C40B51E2C400D882C43751E10
:100560002A400D892A434D882A43144DA8420BD0B6
:10057000134DA84208D0134DA84205D0124DA842F1
:1005800002D0124DA84213D14FF6F7752A404D897B
:100590002A434FF6FB752A408D882A434FF6FF65A4
:1005A0002B404FF6FF552B408D892B43CD892B4394
:1005B00083800483CD888586028470BD002C014031
:1005C0000034014000400140004401400048014027
:1005D0008185704781867047002202881D4B9842B2
:1005E0000ED01D4B98420BD0B0F1804F08D01B4B62
:1005F000984205D01A4B984202D01A4B984204D127
:100600004FF68F731A404B881A43174B984207D006
:10061000164B984204D04FF6FF431A40CB881A433A
:1006200002808B8883850B8803850A4B98420BD008
:10063000094B984208D00E4B984205D00D4B98427A
:1006400002D00D4B984201D10B7A0386012383829D
:1006500070470000002C01400034014000040040BD
:1006600000080040000C0040001000400014004052
:1006700000400140004401400048014010B50346DD
:10068000002404E04FF47A7000F004F8641C9C42EB
:10069000F8D310BD002101E000BF491C00EB80022F
:1006A0008A42F9D87047000008B501210420FFF7FD
:1006B00083FE4020ADF8000003208DF802001820D2
:1006C0008DF8030069460248FFF7DBFD08BD000016
:1006D00000080140FFF7E8FF00F024F81AE00024CA
:1006E00014E00D4830F814100C48FFF771FF0A4869
:1006F00030F8145005EBD57041100848FFF76AFF39
:10070000074931F81400FFF7B9FF641CB4F5907F76
:10071000E7D300BFE3E70000000000200004004032
:100720002001002000B587B001210220FFF734FE30
:100730002320ADF8100040F6E860ADF8140000206A
:10074000ADF816001020ADF8120004A90C48FFF710
:1007500043FF40F27470ADF806006020ADF8000071
:100760000020ADF808000120ADF8020069460448F9
:10077000FFF7E2FE01210248FFF7D2FE07B000BDFD
:1007800000040040A407000800000020E40100006D
:100790002801000888080008E40100206406000021
:1007A000840100081112021A04043A08083A0104EC
:1007B00023028029041B014004E9204918128029E2
:1007C000043A20047A40083A10041A202D29041A09
:1007D000103129043A08082910291C290449343AFF
:1007E0004044290429542904396E490429745A04BF
:1007F0003D3A083DC941490A4918492649A8393EA8
:100800004950495E690E591C492849E439C849B81C
:1008100069B0496B69A429202B2C01023A90061279
:10082000C81A90043C2C01960412C81A64043AFABF
:10083000022B5E01061AB4081AB4083A820412B4F4
:100840001A5A0412643A962829083A500412643A53
:100850003C0412507A32043A6418492C1A96023A2F
:10086000C804296C490429801A90023AF4042DF432
:10087000015802041C5802BC08491649A4492E49D3
:0808800040494E3290000000D7
:04000005080000ED02
:00000001FF
