:020000040800F2
:100000006004002001010008090100080B0100083C
:100010000D0100080F010008110100080000000098
:1000200000000000000000000000000013010008B4
:100030001501000800000000170100081901000860
:100040001B0100081B0100081B0100081B01000820
:100050001B0100081B0100081B0100081B01000810
:100060001B0100081B0100081B0100081B01000800
:100070001B0100081B0100081B0100081B010008F0
:100080001B0100081B0100081B0100081B010008E0
:100090001B0100081B0100081B0100081B010008D0
:1000A0001B0100081B0100081B0100081B010008C0
:1000B0001B0100081B0100081B0100081B010008B0
:1000C0001B0100081B0100081B0100081B010008A0
:1000D0001B010008A90600081B0100081B010008FD
:1000E0001B0100081B0100081B010008DFF80CD0F1
:1000F00000F040F800480047690B00086004002049
:100100000648804706480047FEE7FEE7FEE7FEE7B1
:10011000FEE7FEE7FEE7FEE7FEE7FEE7490600082A
:10012000ED000008D2B201E000F8012B491EFBD21D
:1001300070470022F6E710B513460A4604461946F2
:10014000FFF7F0FF204610BD30B50B4601460020FA
:100150002022012409E021FA02F59D4205D303FA89
:1001600002F5491B04FA02F52844151EA2F101020A
:10017000F1DC30BD064C074D06E0E06840F00103BD
:1001800094E8070098471034AC42F6D3FFF7B2FF6B
:10019000C80C0008E80C000821B1826842F0010296
:1001A000826003E0826822F00102826070470146AB
:1001B000C86C80B270470246002013680B400BB138
:1001C000012000E00020704730B5024600200023E7
:1001D00050680F4C20400D790C6844EA05242043F8
:1001E000506090680B4C2040D1E902542C434D796B
:1001F00044EA450420439060D06A20F470000C7CEF
:10020000641EE4B2234340EA0350D06230BD0000D4
:10021000FFFEF0FFFDF7F1FFF0B504460D460020AC
:100220000021092D11DDE068A5F10A0606EB46075D
:10023000072606FA07F18843A5F10A0606EB4606EB
:1002400003FA06F10843E0600CE0206905EB45077E
:10025000072606FA07F1884305EB450603FA06F17F
:1002600008432061072A0FDA606B561E06EB8607EB
:100270001F2606FA07F18843561E06EB860605FA86
:1002800006F10843606322E00D2A0FDA206BD61FC7
:1002900006EB86071F2606FA07F18843D61F06EBF2
:1002A000860605FA06F10843206310E0E06AA2F131
:1002B0000D0606EB86071F2606FA07F18843A2F112
:1002C0000D0606EB860605FA06F10843E062F0BD6E
:1002D00021B1826842F4A002826003E0826822F4C5
:1002E000A002826070472DE9F041024600250026F9
:1002F000002000230024002791F803C00CF00F0514
:1003000091F803C00CF0100CBCF1000F03D091F871
:1003100002C04CEA050591F800C0BCF1000F31D0D5
:10032000146800202BE04FF0010C0CFA00F3B1F838
:1003300000C00CEA03069E4220D183004FF00F0C50
:100340000CFA03F7BC4305FA03FC4CEA040491F8E9
:1003500003C0BCF1280F06D14FF0010C0CFA00FCD1
:10036000C2F814C00AE091F803C0BCF1480F05D1EF
:100370004FF0010C0CFA00FCC2F810C0401C082819
:10038000D1D31460B1F800C0BCF1FF0F34DD546864
:1003900000202EE000F1080C4FF0010808FA0CF3E1
:1003A000B1F800C00CEA03069E4221D183004FF051
:1003B0000F0C0CFA03F7BC4305FA03FC4CEA0404E7
:1003C00091F803C0BCF1280F05D100F1080C08FA20
:1003D0000CF8C2F8148091F803C0BCF1480F07D1A3
:1003E00000F1080C4FF0010808FA0CF8C2F8108070
:1003F000401C0828CED35460BDE8F08170B50021C0
:1004000000230F22C47804B3154C246804F4E0647C
:10041000C4F5E064210AC1F10403CA40447804FA37
:1004200003F184781440214309010E4C0678A1554C
:10043000047804F01F050124AC4005786D11AD006F
:1004400005F1E025C5F8004109E0047804F01F0536
:100450000124AC40044D0678761145F8264070BD65
:100460000CED00E000E400E080E100E029B1064A84
:1004700092690243044B9A6104E0034A9269824301
:10048000014B9A61704700000010024030B5002116
:100490000022002400232D4D6D6805F00C0121B1D0
:1004A000042905D0082923D105E0294D056022E063
:1004B000274D05601FE0254D6D6805F47012234D32
:1004C0006D6805F48034022505EB92421CB9214D7C
:1004D000554305600BE01D4D6D6805F400351DB1F9
:1004E0001C4D5543056002E0194D5543056002E07F
:1004F000174D056000BF00BF144D6D6805F0F00199
:100500000909154D6B5C0568DD4045600F4D6D6850
:1005100005F4E061090A104D6B5C4568DD408560BB
:100520000A4D6D6805F46051C90A0B4D6B5C456856
:10053000DD40C560054D6D6805F44041890B074DF0
:100540006B5CC568B5FBF3F5056130BD001002407A
:1005500000127A0000093D00080000201800002069
:1005600010B500F001F810BD0CB50020019000900E
:100570003348006840F480303149086000BF30489B
:10058000006800F4003000900198401C0190009831
:1005900018B90198B0F5A06FF1D12948006800F4AE
:1005A000003010B10120009001E000200090009880
:1005B000012843D12348006840F010002149086019
:1005C0000846006820F0030008600846006840F014
:1005D000020008601A4840681949486008464068A7
:1005E00048600846406840F48060486008464068BB
:1005F00020F47C1048600846406840F4E8104860E9
:100600000846006840F08070086000BF0C48006831
:1006100000F000700028F9D00948406820F003007D
:10062000074948600846406840F00200486000BF43
:100630000348406800F00C000828F9D10CBD000008
:10064000001002400020024010B51348006840F03E
:1006500001001149086008464068104908400E49E9
:100660004860084600680E4908400B490860084683
:10067000006820F4802008600846406820F4FE00EE
:1006800048604FF41F008860FFF76AFF4FF000607A
:100690000449086010BD0000001002400000FFF88F
:1006A000FFFFF6FE08ED00E010B540F225511448BA
:1006B00000F056F8012822D1114800F00DF9044647
:1006C0000A2C08D00F4802680068401C0D4B1860C7
:1006D0000D4884540EE000210A4802680068401C5E
:1006E000084B186008488154002019460860012012
:1006F0000649086040F22551014800F009F810BD94
:1007000000380140040000202000002000000020EC
:1007100010B50022002340F66A14A14200D100BFA8
:100720000A1201249440A3B2DC43048010BD21B11D
:10073000828942F40052828104E082894DF6FF737F
:100740001A408281704702460020B1F5007F00D137
:1007500000BF13880B400BB1012000E00020704760
:1007600070B50246002400230025002040F66A16DA
:10077000B14200D100BFC1F3421501F01F030126B1
:1007800006FA03F3012D02D19689334006E0022DCB
:1007900002D1168A334001E0968A33400C120126BA
:1007A00006FA04F41688344013B10CB1012000E0BD
:1007B000002070BDF0B5034600240026002500206F
:1007C00040F66A17B94200D100BF1846C1F342147F
:1007D00001F01F06012707FA06F5012C01D10C30A4
:1007E00004E0022C01D1103000E014301AB1076887
:1007F0002F43076002E00768AF430760F0BD0000C9
:100800002DE9F04786B005460E460024A24600BFFB
:10081000A1460027B08900B100BF2F462C8A4CF6B4
:10082000FF700440F08804432C82AC894EF6F3102C
:100830000440B08831890843718908430443AC817E
:10084000AC8A4FF6FF400440B0890443AC8201A853
:10085000FFF71CFE1F48874202D1DDF810A001E01F
:10086000DDF80CA0A88900F4004040B10AEBCA00F2
:1008700000EB0A1031684900B0FBF1F807E00AEB21
:10088000CA0000EB0A1031688900B0FBF1F864205F
:10089000B8FBF0F004012009642101FB1089A8894C
:1008A00000F4004040B1322000EBC900B0FBF1F091
:1008B00000F00700044308E0322000EB0910642137
:1008C000B0FBF1F000F00F0004432C8106B0BDE84E
:1008D000F08700000038014001468888C0F3080016
:1008E0007047C1F308028280704700000FB4054BC7
:1008F00010B503A9044A029800F02CF810BC5DF86A
:1009000014FB0000B30A00081C0000200FB4084BC1
:1009100010B504A902AA039800F01CF8044602A925
:10092000002000F0C1F8204610BC5DF814FB000068
:10093000A90A000802E008C8121F08C1002AFAD15B
:1009400070477047002001E001C1121F002AFBD14F
:10095000704700002DE9FF4F89B09B4604460025F3
:1009600006E025280BD05A460B999047641C6D1C55
:1009700020780028F5D10DB02846BDE8F08F00277B
:10098000B8460122474900E0074314F8013F203BE5
:1009900002FA03F00842F7D120782E2819D114F872
:1009A000010F47F004072A280ED06FF02F0220789D
:1009B000A0F1300109290CD808EB880102EB4101B4
:1009C00000EB0108641CF2E70A98641C50F8048BE1
:1009D0000A9020780028CED0642808D0692806D054
:1009E00075281ED05A460B9990476D1C58E00A99FD
:1009F0004FF00A0901C90A91002802DA40422D216C
:100A000002E0390504D52B218DF82010012103E0E7
:100A1000F90704D02021F7E78A4608AE0DE000214F
:100A2000FAE70A994FF00A0901C90A91F7E749461E
:100A3000FFF78AFB303106F8011D0028F7D1ADEB36
:100A4000060000F12009780701D44FF00108C845DD
:100A500002DDA8EB090000E000208046002706E048
:100A600008A85A46C05D0B9990476D1C7F1C5745DE
:100A7000F6DB04E030205A460B9990476D1CB8F124
:100A80000001A8F10108F5DC05E016F8010B5A4653
:100A90000B9990476D1CB9F10001A9F10109F4DC33
:100AA000641C65E7092801000A68531C0B6010707C
:100AB000704770B504460D46E0B200F0E9F800203A
:100AC00070BD000010B5002400BF02210548FFF7EB
:100AD00072FB0028F9D00348FFF769FB0446204663
:100AE00010BD00000024014000B587B001214FF483
:100AF0000170FFF7BBFC0820ADF8180001208DF84D
:100B00001A0000208DF81B0006A91148FFF7EBFB27
:100B1000002001908DF8080001208DF809004FF4A5
:100B2000602003900020049001208DF8140001A99A
:100B30000848FFF749FB0023012203210548FFF77E
:100B40006BFB01210348FFF727FB07B000BD000046
:100B5000000801400024014010B501210148FFF7C1
:100B6000B7FB10BD0024014090B040216846FFF75C
:100B7000E0FA0024FFF7B8FF4FF4E13000F034F85A
:100B8000FFF7EAFF12E0FFF79DFF0446224608A1A7
:100B90006846FFF7BBFE684600F08AF8214607A0CA
:100BA000FFF7A4FE4FF4FA7000F00EF8EBE7000038
:100BB0006C69676874313A2025640A006C6967685B
:100BC00074323A2025640A000146002006E0002025
:100BD00000E0401C41F672729042FADB0A1EA1F15D
:100BE0000101F4D17047000010B586B00446012120
:100BF00044F20400FFF73AFC4FF40070ADF8140023
:100C000001208DF8160018208DF8170005A91E4840
:100C1000FFF769FB4FF48060ADF8140001208DF8F8
:100C2000160004208DF8170005A91748FFF75BFB95
:100C300001940020ADF80800ADF80A00ADF80C00F2
:100C4000ADF810000C20ADF80E0001A90F48FFF719
:100C5000D7FD012240F225510C48FFF7ABFD2520BE
:100C60008DF8000001208DF8030000208DF80100B0
:100C70008DF802006846FFF7C1FB01210348FFF72A
:100C800056FD06B010BD00000008014000380140CC
:100C900010B5044621460548FFF723FE00BF80211A
:100CA0000248FFF750FD0028F9D010BD0038014080
:100CB00010B5044603E02078FFF7EAFF641C2078B3
:100CC0000028F8D110BD0000E80C0008000000204A
:100CD0002000000034090008080D00082000002052
:100CE000400400004409000800000000000000006B
:100CF00000000000010203040102030406070809C2
:080D00000204060800000000D7
:0400000508000101ED
:00000001FF
